:0200000460009A
:100000000000012099020000090300000B0300001A
:100010000D0300000F0300001103000000000000AA
:1000200000000000000000000000000013030000BA
:100030001503000000000000170300001903000072
:100040001B0300001D0300001F030000210300002C
:1000500023030000250300002703000029030000FC
:100060002B0300002D030000792C0000A52C0000BC
:100070003303000035030000AD3B000039030000EE
:100080003B030000D93B00003F0300004103000098
:10009000910B0000A90B000047030000490300007A
:1000A0004B03000000000000000000000000000002
:1000B0000000000000000000000000004D030000F0
:1000C0004F030000510300005303000055030000DC
:1000D00057030000590300005B0300005D030000AC
:1000E0005F0300006103000063030000650300007C
:1000F00067030000690300006B0300006D0300004C
:100100006F0300007103000073030000750300001B
:1001100077030000790300007B0300007D030000EB
:100120007F030000810300008303000085030000BB
:1001300087030000890300008B0300008D0300008B
:100140008F0300009103000093030000950300005B
:1001500097030000990300009B0300009D0300002B
:100160009F030000A1030000A3030000A5030000FB
:10017000A7030000A9030000AB030000AD030000CB
:10018000AF030000B1030000B3030000B50300009B
:10019000B7030000B9030000BB030000BD0300006B
:1001A000BF030000C1030000C3030000C50300003B
:1001B000C7030000C9030000CB030000CD0300000B
:1001C000CF030000D1030000D3030000D5030000DB
:1001D000D7030000D9030000DB030000DD030000AB
:1001E000DF030000E1030000E3030000E50300007B
:1001F000E7030000E9030000EB030000ED0300004B
:10020000EF030000F1030000F3030000F50300001A
:10021000F7030000F90300008D420000B542000022
:10022000DD420000054300002D430000554300005F
:100230007D430000A5430000CD430000F5430000CE
:100240001D440000454400006D440000954400003A
:10025000BD440000E54400000D45000035450000A8
:100260005D45000085450000AD450000D545000016
:10027000FD450000254600004D4600007546000083
:100280009D460000C5460000ED46000015470000F1
:100290003D470000654700006848804768480028DF
:1002A0000BD168486849694A884206D091421CBF10
:1002B00050F8043B41F8043BF8D165486549664A6B
:1002C000884206D091421CBF50F8043B41F8043BE1
:1002D000F8D162486249634A914218BF41F8040B61
:1002E000FAD1000000000000000000000000000043
:1002F000DFF874010FF2030E00474FF000004FF0DB
:100300000001DFF868F1FEE7FEE7FEE7FEE7FEE743
:10031000FEE7FEE7FEE7FEE7FEE7FEE7FEE7FEE7B5
:10032000FEE7FEE7FEE7FEE7FEE7FEE7FEE7FEE7A5
:10033000FEE7FEE7FEE7FEE7FEE7FEE7FEE7FEE795
:10034000FEE7FEE7FEE7FEE7FEE7FEE7FEE7FEE785
:10035000FEE7FEE7FEE7FEE7FEE7FEE7FEE7FEE775
:10036000FEE7FEE7FEE7FEE7FEE7FEE7FEE7FEE765
:10037000FEE7FEE7FEE7FEE7FEE7FEE7FEE7FEE755
:10038000FEE7FEE7FEE7FEE7FEE7FEE7FEE7FEE745
:10039000FEE7FEE7FEE7FEE7FEE7FEE7FEE7FEE735
:1003A000FEE7FEE7FEE7FEE7FEE7FEE7FEE7FEE725
:1003B000FEE7FEE7FEE7FEE7FEE7FEE7FEE7FEE715
:1003C000FEE7FEE7FEE7FEE7FEE7FEE7FEE7FEE705
:1003D000FEE7FEE7FEE7FEE7FEE7FEE7FEE7FEE7F5
:1003E000FEE7FEE7FEE7FEE7FEE7FEE7FEE7FEE7E5
:1003F000FEE7FEE7FEE7FEE7FEE7FEE7FEE7FEE7D5
:10040000FEE7FEE7FEE7FEE7FEE7FEE7FEE7FEE7C4
:10041000FEE7FEE7FEE7FEE7FEE7FEE7FEE7FEE7B4
:10042000FEE7FEE7FEE7FEE7FEE7FEE7FEE7FEE7A4
:10043000FEE7FEE7FEE7FEE7FEE70000393E0000CC
:10044000010000007004006070040000705E000095
:10045000705E0060000000208005002000000000A9
:1004600080050020C807002071500000A104000092
:1004700040F28053C2F200031A780AB901201870C2
:10048000704700BF40F20000C2F2000008B50368E8
:100490002BB140F20003C0F2000303B1984708BD3E
:1004A00080B500AF01F06AFF4FF000004EF200117E
:1004B000C0F2F55101F088FF4FF0040041F6103111
:1004C000C0F27F0101F080FF4FF001004EF20011F9
:1004D000C0F2F55101F078FF00F042FF4FF0000349
:1004E000184680BD80B500AF40F2D050C2F2000087
:1004F0004FF000014FF0180205F08CF980BD00BFED
:1005000080B584B000AF7860396040F2D053C2F259
:1005100000035A6940F2D053C2F200031344FB6057
:10052000F86879683A6805F0ADF840F2D053C2F245
:1005300000035A693B681A4440F2D053C2F20003E8
:100540005A6140F2D053C2F200035B69112B94BF91
:1005500000230123184607F11007BD4680BD00BFE8
:1005600080B483B000AF78607B681A7C40F2E853B7
:10057000C2F200035B789A420ED07B685A7C40F24C
:10058000E853C2F200035B789A4203D07B685B7C3D
:10059000FF2B01D17B6801E04FF00003184607F103
:1005A0000C07BD4680BC704780B586B000AF786050
:1005B00007F1080340F28C60C2F2000019464FF0C8
:1005C000080202F047F903463B6107F108031846A9
:1005D0003969FFF795FF0346002B1AD040F2D0503F
:1005E000C2F20000FFF7BCFF03467B617B69002B72
:1005F0000DD040F2E853C2F200035B68002B06D036
:1006000040F2E853C2F200035B6878699847FFF74D
:1006100069FF07F11807BD4680BD00BF80B582B0F5
:1006200000AF78607B6840F28C60C2F2000019462F
:100630004FF0120202F09CF807F10807BD4680BD9A
:1006400080B582B000AF0B463A600246FA71BB71CA
:1006500040F2E853C2F20003FA791A7040F2E8530C
:10066000C2F20003BA795A7040F2E853C2F20003B2
:100670003A685A60FFF736FF40F28C60C2F2000021
:100680004FF416514FF0030201F070FF40F28C60FE
:10069000C2F2000040F2A951C0F200014FF0800206
:1006A00002F096FA40F28C60C2F200004FF00101B5
:1006B00002F03EF907F10807BD4680BD80B588B05D
:1006C00000AF78600B46FB707B6807F10C011A469F
:1006D0004FF01003084611461A4604F0D3FFFB788A
:1006E0007B7740F2E853C2F200035B783B7707F177
:1006F0000C031846FFF792FF07F12007BD4680BDA7
:1007000080B483B000AF0346FB804EF20013CEF2FC
:100710000003B7F906204FEA5212F98801F01F01D1
:100720004FF0010000FA01F143F8221007F10C0725
:10073000BD4680BC704700BF80B483B000AF0346A5
:10074000FB804EF20013CEF20003B7F906204FEA09
:100750005212F98801F01F014FF0010000FA01F177
:1007600002F1200243F8221007F10C07BD4680BCBD
:10077000704700BF80B483B000AF0346FB804EF2E9
:100780000013CEF20003B7F906204FEA5212F9889F
:1007900001F01F014FF0010000FA01F102F16002C7
:1007A00043F8221007F10C07BD4680BC704700BF1C
:1007B00080B582B000AF0346FB714FF01400FFF725
:1007C000BBFF42F20003CEF2040342F20002CEF27B
:1007D0000402126B22F040021A6345F20003C4F2D5
:1007E00000034FF000025A6540F20003C4F20A23EE
:1007F0004FF00002C3F8802140F20003C4F20A2344
:100800004FF00002C3F8882140F20003C4F20A232B
:10081000FA79C3F8842145F20003C4F200034FF0D3
:1008200001021A614FF01400FFF7A4FF07F1080757
:10083000BD4680BD80B400AF40F20003C4F20A237D
:100840004FF00102C3F88021BD4680BC704700BF55
:1008500080B483B000AF786045F20003C4F20003B7
:100860007A685A6007F10C07BD4680BC704700BF2C
:1008700080B500AF40F20003C4F20A234FF001023A
:10088000C3F888214FF01400FFF73AFF80BD00BF86
:1008900080B500AF40F20003C4F20A234FF000021B
:1008A000C3F888214FF01400FFF746FF80BD00BF5A
:1008B00080B582B000AF0346FB714FF01500FFF723
:1008C0003BFF42F20003CEF2040342F20002CEF2FA
:1008D0000402126B22F040021A6345F20003C4F2D4
:1008E00000034FF000025A6540F20003C4F20A23ED
:1008F0004FF00002C3F8802440F20003C4F20A2340
:100900004FF00002C3F8882440F20003C4F20A2327
:10091000FA79C3F8842445F20003C4F200034FF0CF
:1009200001029A624FF01500FFF724FF07F1080754
:10093000BD4680BD80B400AF40F20003C4F20A237C
:100940004FF00102C3F88024BD4680BC704700BF51
:1009500080B400AF45F20003C4F200039B6918465F
:10096000BD4680BC704700BF80B483B000AF7860E4
:1009700045F20003C4F200037A68DA6107F10C075C
:10098000BD4680BC704700BF80B500AF40F2000399
:10099000C4F20A234FF00102C3F888244FF0150077
:1009A000FFF7AEFE80BD00BF80B500AF40F2000390
:1009B000C4F20A234FF00002C3F888244FF0150058
:1009C000FFF7BAFE80BD00BFB0B582B000AF78605F
:1009D000786804F01DF804460D464FF0010001F060
:1009E0000FFD0346184604F013F802460B46104666
:1009F00019460BA3D3E9002304F0AAF902460B46DB
:100A00002046294604F07AF802460B46104619465D
:100A100004F00EFB0346184607F10807BD46B0BDBB
:100A20000000000080842E41B0B582B000AF786035
:100A3000786803F0EDFF04460D464FF0010001F029
:100A4000DFFC0346184603F0E3FF02460B46104660
:100A500019460BA3D3E9002304F07AF902460B46AA
:100A60002046294604F04AF802460B46104619462D
:100A700004F0DEFA0346184607F10807BD46B0BD8C
:100A80000000000065CDCD4180B500AFFFF760FFED
:100A90000346002B14BF00230123184680BD00BF6E
:100AA00080B582B000AF786039607B68002B15D0CC
:100AB00040F2F053C2F200033A681A604FF00100AE
:100AC000FFF7F6FEFFF760FF7868FFF77DFF03464C
:100AD0001846FFF749FFFFF72DFF00E000BF07F1C1
:100AE0000807BD4680BD00BF80B582B000AF78600A
:100AF0007B68002B1DD04FF00100FFF759FEFFF778
:100B0000B7FE7868FFF760FF03461846FFF7A0FEC0
:100B100040F2F453C2F200034FF000021A60FFF7F4
:100B200089FE40F2F453C2F200031B68002BF8D098
:100B300000E000BF07F10807BD4680BD80B582B068
:100B400000AF78607B68002B1DD04FF00100FFF7ED
:100B50002FFEFFF78DFE7868FFF766FF0346184605
:100B6000FFF776FE40F2F453C2F200034FF00002AA
:100B70001A60FFF75FFE40F2F453C2F200031B68F5
:100B8000002BF8D000E000BF07F10807BD4680BD8C
:100B900080B500AF40F2F453C2F200034FF00102FF
:100BA0001A60FFF775FE80BD80B500AFFFF7FCFE51
:100BB00040F2F053C2F200031B68002B05D040F254
:100BC000F053C2F200031B68984740F2F053C2F2A0
:100BD00000034FF000021A60FFF7E6FE80BD00BF81
:100BE00080B483B000AF786043F20003C4F2010325
:100BF0007A68C3F8882007F10C07BD4680BC7047AF
:100C000080B400AF43F20003C4F20103D3F888308C
:100C10001846BD4680BC704780B582B000AF034621
:100C2000FB7103F00DF8FB7918464FF0050103F056
:100C30003DF8FB7918464FF0FF0103F055F807F136
:100C40000807BD4680BD00BF80B582B000AF034637
:100C5000FB71FB7918464FF0000103F045F807F1EE
:100C60000807BD4680BD00BF80B582B000AF034617
:100C7000FB71FFF7C5FF0246FB7982EA03031846C2
:100C8000FFF7AEFF07F10807BD4680BD80B582B013
:100C900000AF0346FB71FFF7B3FF0246FB7942EA60
:100CA00003031846FFF79CFF07F10807BD4680BD08
:100CB00080B586B000AF0346B9607A60FB73FB7BFA
:100CC0001846FFF7E3FF4FF000037B610AE0FB7B70
:100CD0001846FFF7C9FF7868FFF706FF7B6903F145
:100CE00001037B61BB684FEA43027B699A42EED8FD
:100CF000FB7B1846FFF7CAFF07F11807BD4680BD0A
:100D000080B483B000AF78600B46FB707B68FA78E4
:100D10009A7107F10C07BD4680BC7047B0B584B02E
:100D200000AF786000F008FD03461D4600F00EFDA0
:100D300003461C4600F014FD03462A463A8122462B
:100D40007A81BB817A6807F10803104619464FF093
:100D5000060204F097FC07F11007BD46B0BD00BFC6
:100D600080B58CB000AF0346FB7140F25860C2F210
:100D700000004FF000014FF0080204F04BFDFB793A
:100D800040F25860C2F200001946FFF7B9FFFB7944
:100D9000002B0CBF0023012387F8273097F827206A
:100DA000FB791046194640F6B562C0F20002FFF723
:100DB00047FC40F20003C4F20503BB6240F2386016
:100DC000C2F20000B96A44F6206201F0A9F941F2CA
:100DD0000003C4F20503FB6240F21860C2F2000097
:100DE000F96A44F6206201F09BF945F67043C0F2BF
:100DF000000307F10C0C9E46BEE80F00ACE80F00A4
:100E00009EE803008CE8030007F10C0340F2F85061
:100E1000C2F2000019464FF0060200F077FD00F024
:100E2000EDFA40F25863C2F200034FF001021A706B
:100E300040F26063C2F200034FF000021A7007F143
:100E40003007BD4680BD00BF80B582B000AF03460D
:100E5000FB71FB791846FFF783FF07F10807BD46D2
:100E600080BD00BF80B584B000AF40F25863C2F2CD
:100E700000039B79002B00D100BE3B4618464FF083
:100E800000014FF0100204F0C5FC3B46184640F24A
:100E90005861C2F200014FF0080204F0F3FB3B4638
:100EA00018464FF00001FFF709FC07F11007BD4697
:100EB00080BD00BF80B584B000AF78607B6807F16B
:100EC0000802104619464FF0080204F0DBFB3A7A9C
:100ED00040F25863C2F200031A7007F11007BD46D2
:100EE00080BD00BF80B483B000AF78607B68022B08
:100EF00060D0032B30D0012B40F08A8040F2606339
:100F0000C2F200031B78032B26D801A252F823F06B
:100F1000210F00002F0F00004B0F00003D0F0000BD
:100F200040F26063C2F200034FF002021A7040F216
:100F30006063C2F200034FF003021A7040F2606374
:100F4000C2F200034FF000021A7040F26063C2F276
:100F500000034FF001021A7040F26063C2F2000316
:100F60001B78032B26D801A252F823F07D0F000036
:100F70008B0F0000A70F0000990F000040F2606384
:100F8000C2F200034FF003021A7040F26063C2F233
:100F900000034FF002021A7040F26063C2F20003D5
:100FA0004FF001021A7040F26063C2F200034FF08A
:100FB00000021A7040F26063C2F200031B78032B38
:100FC00026D801A252F823F0D90F0000E70F000045
:100FD00003100000F50F000040F26063C2F200034E
:100FE0004FF001021A7040F26063C2F200034FF04A
:100FF00000021A7040F26063C2F200034FF0020276
:101000001A7040F26063C2F200034FF003021A70DC
:1010100007F10C07BD4680BC704700BF0000000010
:1010200080B582B002AF40F23860C2F200004FF0EB
:1010300000014FF000024FF0000301F033F940F2DD
:101040001860C2F200004FF000014FF000024FF0B4
:10105000000301F027F940F25863C2F200034FF099
:1010600001021A700AA3D3E90023CDE9002340F25C
:10107000F850C2F200004FF00A0141F62132C0F2EE
:10108000000200F0C1FFBD4680BD00BFAFF300808D
:10109000333333333333EB3F80B582B000AF40F2AC
:1010A000F850C2F200004FF0020141F62132C0F2C6
:1010B000000200F0EDFD40F2F850C2F2000000F036
:1010C000C1FC03463B6040F2F850C2F200003968B0
:1010D00000F07AFE0346FB8040F2F850C2F20000B6
:1010E00000F08CFE0346FA889A4218D940F2386024
:1010F000C2F200004FF000014FF000024FF0000379
:1011000001F0D0F840F21860C2F200004FF0000188
:101110004FF000024FF0000301F0C4F8F6E0386829
:10112000FFF7E0FE3B68012B39D140F23860C2F294
:1011300000004FF0020178A3D3E9002301F0B2F8D8
:1011400040F21860C2F200004FF0010172A3D3E92F
:10115000002301F0A7F840F2F850C2F200004FF06F
:1011600000014FF0020241F62133C0F2000300F00B
:10117000ABFF40F26063C2F200031B78002B07D084
:1011800040F26063C2F200031B78012B40F0B9808B
:1011900041F6B060C0F20400FFF7A6FCB6E03B6881
:1011A000032B38D140F23860C2F200004FF0010149
:1011B00059A3D3E9002301F075F840F21860C2F298
:1011C00000004FF0020154A3D3E9002301F06AF8B4
:1011D00040F2F850C2F200004FF000014FF002025E
:1011E00041F62133C0F2000300F06EFF40F260636D
:1011F000C2F200031B78002B06D040F26063C2F2FB
:1012000000031B78012B7ED141F6B060C0F20400D0
:10121000FFF76AFC7AE03B68002B30D140F238607F
:10122000C2F200004FF001013DA3D3E9002301F019
:1012300039F840F21860C2F200004FF0010138A303
:10124000D3E9002301F02EF848F2A060C0F20100BB
:10125000FFF74AFC40F26063C2F200031B78022BE6
:1012600006D040F26063C2F200031B78032B4CD11E
:101270004AF22010C0F20700FFF736FC46E03B6858
:10128000022B24D140F23860C2F200004FF002017C
:1012900023A3D3E9002301F005F840F21860C2F25D
:1012A00000004FF001011EA3D3E9002300F0FAFF74
:1012B00040F2F850C2F200004FF000014FF002027D
:1012C00041F62133C0F2000300F0FEFE1EE03B6851
:1012D000042B09D140F21860C2F200000EA3D3E93A
:1012E000002300F0A7FF11E03B68052B0ED140F270
:1012F0003860C2F2000008A3D3E9002300F09AFF8F
:1013000004E000BF02E000BF00E000BF07F10807F3
:10131000BD4680BDAFF30080666666666666D63FF2
:10132000333333333333D33F80B500AF40F23860CB
:10133000C2F200004FF000014FF000024FF0000336
:1013400000F0B0FF40F21860C2F200004FF0000160
:101350004FF000024FF0000300F0A4FF80BD00BF7B
:1013600080B582B000AF4FF00100FFF76DFD4FF088
:101370000000FFF751FC4FF000004FF005014AF26A
:101380002012C0F20702FFF793FC40F25863C2F24A
:1013900000031B78FB71FFF777FB0346002B0FD090
:1013A00040F25860C2F20000FFF7B8FCFFF75AFDA8
:1013B0004AF22010C0F207004FF00001FFF770FB67
:1013C000FB79022B0CD1FFF72BFE4FF000004FF002
:1013D00002014AF22012C0F20702FFF769FCD4E7CB
:1013E000FB79002B06D14FF00000FFF72DFCFFF733
:1013F00053FECAE7FFF798FFC7E700BF80B582B08A
:1014000000AF4FF00D037B714FF03F03BB714FF006
:101410000003FB717979BA79FB79084611461A46BF
:1014200000F006F80346184607F10807BD4680BDE0
:1014300080B584B000AF13460246FA710A46BA710D
:101440007B7140F25070C2F200004FF044014FF047
:10145000040201F095FC07F10F034FF0000019465C
:1014600000F056F8FB7B7D2B02D04FF000034AE0E2
:1014700000F016F90346FB73FB7B002B02D14FF003
:10148000000340E0FB794FF00100194600F0E0F85E
:10149000BB794FF00200194600F0DAF87B794FF083
:1014A0000300194600F0D4F84FF00003BB7307F1B6
:1014B0000E034FF00100194600F02AF8BB7BFA79C1
:1014C0009A4202D04FF000031DE007F10E034FF0E7
:1014D0000200194600F01CF8BB7BBA799A4202D090
:1014E0004FF000030FE007F10E034FF00300194621
:1014F00000F00EF8BB7B7A799A4202D04FF00003DD
:1015000001E04FF00103184607F11007BD4680BD0A
:1015100080B586B004AF03463960FB7107F107035D
:101520003A6800924FF0010201924FF000020292DD
:1015300040F25070C2F200004FF044011A464FF0E2
:10154000010301F0C7FD40F25070C2F200004FF0FD
:10155000000101F059FE07F107034FF0000200926D
:1015600040F25070C2F200004FF044011A464FF0B2
:10157000000301F0BBFC40F25070C2F200004FF0DB
:10158000000101F041FE07F10807BD4680BD00BF24
:1015900080B586B002AF0346FB714FF000033B738A
:1015A0004FF000037B7307F107034FF00002009236
:1015B00040F25070C2F200004FF044011A464FF062
:1015C000010301F093FC40F25070C2F200004FF0B2
:1015D000000101F019FE07F10C034FF00002009228
:1015E00040F25070C2F200004FF044011A464FF032
:1015F000020301F0F5FC40F25070C2F200004FF01F
:10160000000101F001FE07F107034FF00002009214
:1016100040F25070C2F200004FF044011A464FF001
:10162000000301F063FC40F25070C2F200004FF082
:10163000000101F0E9FD7B7B4FEA03239AB23B7B7B
:1016400013449BB2184607F11007BD4680BD00BF8A
:1016500080B586B002AF02460B46FA71BB71FB79CA
:101660003B73BB797B7307F10C034FF000020092D0
:1016700040F25070C2F200004FF044011A464FF0A1
:10168000020301F033FC40F25070C2F200004FF050
:10169000000101F0B9FD07F11007BD4680BD00BF94
:1016A00080B582B000AF4FF00003FB714FF0000334
:1016B000BB714FF000004FF04601FFF7C9FF07F183
:1016C00006034FF001001946FFF722FFBA79FB79B4
:1016D00042EA0303FB7107F106034FF002001946CB
:1016E000FFF716FFBA79FB7942EA0303FB7107F1B2
:1016F00006034FF003001946FFF70AFFBA79FB799A
:1017000042EA0303FB7107F106034FF00800194694
:10171000FFF7FEFEBA79FB7942EA0303FB71FB791E
:10172000002B02D04FF0000301E04FF001031846F8
:1017300007F10807BD4680BD80B500AF4FF00B0034
:10174000FFF726FF0346184680BD00BF80B500AFF7
:101750004FF00900FFF71CFF0346184680BD00BF8D
:1017600080B500AF4FF00D00FFF712FF034618469B
:1017700080BD00BF80B584B000AFF860B9607A600A
:10178000FB68BA681A60BB6803F10402FB685A6020
:10179000F8687968D7E9062300F0A4F807F1100784
:1017A000BD4680BD80B483B000AF786039607B688F
:1017B0001B683A681A6007F10C07BD4680BC704789
:1017C00090B585B000AFF860C7E90023FB685C689E
:1017D000D7E9000103F02CFC0346236007F114074E
:1017E000BD4690BD80B483B000AF78607B681B6855
:1017F0001B68184607F10C07BD4680BC704700BF48
:10180000B0B584B000AF786039604FF0000000F0F0
:10181000F7FD0346BB603A68BB689A4200D300BE3E
:10182000B86803F0F5F804460D46386803F0F0F8A0
:1018300002460B462046294603F08AFA02460B462A
:101840001046194603F0F4FB0346FB607868F9681C
:10185000FFF7A8FF07F11007BD46B0BD90B587B0F0
:1018600000AFF860C7E900234FF000031C46D7E93A
:1018700000014FF000024FF07E5303F5E00303F048
:10188000B9FB0346002B02D04FF001031C46E3B224
:1018900083F00103DBB2002B00D000BEF868FFF735
:1018A000A1FF03463B61386903F0B2F802460B46DC
:1018B00010461946D7E9002303F020F902460B46EB
:1018C0001046194603F0B4FB03467B61786903F0C8
:1018D0009FF802460B46F868FFF772FF07F11C07F6
:1018E000BD4690BD80B584B000AFF860B960C7E96F
:1018F0000023F868B968FFF783FFF868D7E9002389
:10190000FFF7ACFF07F11007BD4680BD90B587B06B
:1019100000AFF860B9607A60FB687A681A607B682B
:101920004FEA4303184603F0D3FB03461A46FB680D
:101930005A607B684FEA4303184603F0C9FB03462D
:101940001A46FB689A60FB684FF000029A81FB68B8
:101950004FF00002DA817B684FEA8303184603F0F8
:10196000B7FB03461A46FB681A617B684FEA83039C
:10197000184603F0ADFB03461A46FB685A61FB6844
:101980004FF000029A61786803F0A2FB03461A4602
:10199000FB68DA6102F0C8F94FF000037B6137E0C1
:1019A000FB68DA697B6902EB03047B694FEA830217
:1019B000BB6813441B68184602F0BEF90346237047
:1019C000FB685A687B694FEA430313444FF00002F7
:1019D0001A80FB681A697B694FEA830313444FF04E
:1019E00000021A60FB689A687B694FEA430313445C
:1019F0004FF000021A80FB685A697B694FEA830343
:101A000013444FF000021A607B6903F101037B610C
:101A10007A697B689A42C3D307F11C07BD4690BD23
:101A200080B483B000AF786039607B681A683B6827
:101A30009A4294BF00230123184607F10C07BD46C4
:101A400080BC704780B582B000AF786078684FF096
:101A5000000100F0C7FA0346184607F10807BD4623
:101A600080BD00BF90B585B000AF786039604FF0A1
:101A70000003FB6012E07B685A69FB684FEA83034E
:101A800002EB03043B684FEA4303184603F020FBD4
:101A900003462360FB6803F10103FB607B681A685F
:101AA000FB689A42E7D87B683A689A6107F11407A5
:101AB000BD4690BD80B584B000AF78604FF00003A4
:101AC000FB601FE07B685A69FB684FEA830313449D
:101AD0001B68002B12D07B685A69FB684FEA8303AE
:101AE00013441B68184603F0EBFA7B685A69FB68DD
:101AF0004FEA830313444FF000021A60FB6803F1BE
:101B00000103FB607B681A68FB689A42DAD87B683D
:101B10004FF000029A6107F11007BD4680BD00BF7B
:101B20002DE9F04387B000AF786069460E467968CA
:101B3000D1F800C0614601F1FF31B96060464FF055
:101B400000014FF0FF384FF00F0900EA080001EAEA
:101B500009014FEAD0684FEA411548EA05054FEA06
:101B600040144FF0FF304FF00F0104EA000405EA83
:101B7000010560464FF000014FF0FF344FF00F05B4
:101B800000EA040001EA05014FEAD0644FEA41137C
:101B900044EA03034FEA40124FF0FF304FF00F01C9
:101BA00002EA000203EA01034FEA8C0303F1070390
:101BB00003F107034FEAD3034FEAC303ADEB030D71
:101BC0006B4603F107034FEAD3034FEAC303FB60FD
:101BD0004FF000033B6150E03A69FB684FF00001B1
:101BE00043F822104FF000037B6118E03A6939692D
:101BF000FB6853F821107B6858693B694FEA8303FF
:101C0000034418687B694FEA430303441B88194463
:101C1000FB6843F822107B6903F101037B617B6859
:101C20009A697B699A42E1D87B685A683B694FEAB6
:101C3000430302EB03083A69FB6853F82230184665
:101C400002F0E6FE04460D467B689B69184602F0EA
:101C5000DFFE02460B462046294603F079F802468D
:101C60000B461046194603F0E3F903469BB2A8F869
:101C700000303B6903F101033B617B681A683B69F3
:101C80009A42A9D8B54607F11C07BD46BDE8F083C6
:101C900080B588B000AFF860B9607A60F868FFF787
:101CA00009FFF868B968FFF7DDFE4FF0040000F0A7
:101CB000A7FB0346184602F0ABFE02460B4640A1C6
:101CC000D1E9000103F044F802460B4610461946DC
:101CD00003F0AEF90346BB614FF000033B6138E00F
:101CE0004FF000037B6128E0FB68DA697B691344ED
:101CF0001B78184602F05AF80346FB83FB685A69C2
:101D00007B694FEA830313441A683B694FEA430334
:101D10001344FA689189FA8B0A4491B2FA68906880
:101D20007A694FEA420202441288C2EB010292B27F
:101D30001A807B6903F101037B61FB681A687B6988
:101D40009A42D1D8B869FEF7F9FE3B6903F1010365
:101D50003B613A69BB689A42C2D37B68002B03D0CF
:101D60007B68F868984722E04FF000037B6119E038
:101D7000FB685A687B694FEA43031344FA68516968
:101D80007A694FEA82020A441168FA68926902F19C
:101D9000FF324FEA42020A4412881A807B6903F13B
:101DA00001037B61FB681A687B699A42E0D8F86896
:101DB00000F044F807F12007BD4680BDAFF3008076
:101DC0000000000065CDCD4180B582B000AF7860E5
:101DD000396078683968FFF723FE0346002B00D18D
:101DE00000BE7B685A683B684FEA430313441B8874
:101DF000184607F10807BD4680BD00BF80B483B018
:101E000000AF78607B68DB89184607F10C07BD4698
:101E100080BC704780B582B000AF786078684FF0C2
:101E2000000100F0DFF8034678681946FFF7CCFFA1
:101E30000346184607F10807BD4680BD2DE9F0436B
:101E400089B000AF786069460E467968D1F800C065
:101E5000614601F1FF31B96060464FF000014FF07B
:101E6000FF384FF00F0900EA080001EA09014FEAC4
:101E7000107E4FEA01154EEA05054FEA00144FF0B7
:101E8000FF304FF00F0104EA000405EA0105604647
:101E90004FF000014FF0FF344FF00F0500EA04004F
:101EA00001EA05014FEA107E4FEA01134EEA0303EF
:101EB0004FEA00124FF0FF304FF00F0102EA00022C
:101EC00003EA01034FEA4C0303F1070303F107039D
:101ED0004FEAD3034FEAC303ADEB030D6B4603F1A7
:101EE00007034FEAD3034FEAC303FB60F9687B683B
:101EF0005A687B681B684FEA4303084611461A4636
:101F000003F0C0FB4FF000033B610BE07B681A69F4
:101F10003B694FEA830313443A691A603B6903F152
:101F200001033B617B681A683B699A42EED84FF027
:101F300000033B614BE03B6903F101037B613DE042
:101F40007A69FB6833F812203969FB6833F811307D
:101F50009A422FD23A69FB6833F812307B833A6990
:101F60007969FB6833F81110FB6823F812107A695D
:101F7000FB68798B23F812107B681A693B694FEA7A
:101F8000830313441B68FB617B681A693B694FEA52
:101F9000830313447A6811697A694FEA82020A441A
:101FA00012681A607B681A697B694FEA83031344DD
:101FB000FA691A607B6903F101037B617B681A6827
:101FC0007B699A42BCD83B6903F101033B617B68A2
:101FD0001A683B699A42AED8B54607F12407BD4658
:101FE000BDE8F08380B483B000AF786039607B686F
:101FF0001A693B684FEA830313441B68184607F1CC
:102000000C07BD4680BC704780B588B000AFF86053
:10201000B9607A60F868B9687A68FFF739FEF868DD
:10202000FFF70CFFF868FFF7F5FE0346BB824FF0A1
:102030000003FB824FF00003BB611CE0F868B96944
:10204000FFF7C2FE0346BB83BA8BBB8AC3EB020316
:10205000FB83FA8BFB8A9A4201D9FB8BFB82FB68DC
:102060009A68BB694FEA43031344FA8B1A80BB6931
:1020700003F10103BB61FB681A68BB699A42DDD8B2
:10208000FB68FA8A9A81BA8AFB8A13449AB2FB687F
:10209000DA81FB68DB89184602F0BAFC02460B467F
:1020A00010461946D7E90A2302F028FD02460B46DE
:1020B0001046194602F0BCFF03469AB2FB68DA816B
:1020C00007F12007BD4680BD80B588B000AFF8603D
:1020D000B9607A603B60F868FFF790FE0346FB82C8
:1020E00002E000BF00E000BFF86879683A68FFF7D7
:1020F000CFFDF868FFF7A6FC0346BB61F868FFF761
:1021000089FE0346FB83BA69BB689A42E9D1FA8B20
:10211000FB8A9A42E7D200BF07F12007BD4680BD87
:1021200080B588B002AFF860B9607A60BB683B6187
:10213000BB6803F108037B61FB6803F10C031846DD
:10214000396900F0C5F8F9684FF000024FF000035C
:10215000CDE90023084679697A68FFF70BFBF86838
:102160004FF000014FF000024FF0000300F09AF82A
:1021700007F11807BD4680BD80B584B000AF786018
:102180000B46FB70FB78002B0CBF00230123FB7375
:102190007B6803F10C01FA7BFB78084611461A466E
:1021A00000F0D6F807F11007BD4680BD90B583B0AA
:1021B00000AFC7E900014FF000031C46D7E900015A
:1021C0004FF000024FF07E5303F5E00302F026FFCC
:1021D0000346002B02D04FF001031C46E3B2002B54
:1021E00006D04FF000024FF07E5303F5E0031AE0F3
:1021F0004FF000031C46D7E900014FF000024FF0FA
:10220000000302F0EDFE0346002B02D04FF0010365
:102210001C46E3B2002B04D04FF000024FF0000345
:1022200001E0D7E900231046194607F10C07BD4627
:1022300090BD00BF80B588B000AFF860C7E900234B
:10224000D7E90001FFF7B2FF02460B46C7E90423B6
:10225000F968D7E90423C1E90623D7E904014FF05F
:1022600000024FF07E5303F5C00302F047FC024624
:102270000B46104619464FF000024FF07E5303F50F
:10228000C00302F089FA02460B46C7E90623FB6841
:102290001846D7E90623FFF7E1FA07F12007BD4604
:1022A00080BD00BF80B584B000AFF860C7E90023EF
:1022B0000B46FB72FB7AF8681946FFF75DFFF8687A
:1022C000D7E90023FFF7B6FF07F11007BD4680BD31
:1022D00080B582B000AF786039607B683A681A6078
:1022E0003B6803F104027B685A6078684FF0000194
:1022F0004FF0000200F02CF807F10807BD4680BD42
:1023000080B483B000AF78600B46FB70FB78032B82
:1023100000D900BE7B681B68FA781A6007F10C07C9
:10232000BD4680BC704700BF80B483B000AF78600A
:102330000B46FB70FB78012B00D900BE7B685B6805
:10234000FA781A6007F10C07BD4680BC704700BFE1
:1023500080B582B000AF786013460A46FA70BB7051
:10236000BB7878681946FFF7CBFFFB787868194689
:10237000FFF7DAFF07F10807BD4680BD80B483B0E0
:1023800000AF4FF000037B6015E07A6840F26463B1
:10239000C2F200034FF0000143F822107A6840F2C5
:1023A0007863C2F200034FF0000143F822107B680B
:1023B00003F101037B607B68042BE6D907F10C076E
:1023C000BD4680BC704700BF80B483B000AF78606A
:1023D00039607A6840F26463C2F20003396843F8F6
:1023E00022107A6840F27863C2F200034FF00101D4
:1023F00043F8221007F10C07BD4680BC704700BFB0
:1024000080B483B000AF78607A6840F27863C2F23B
:10241000000353F82230002B00D100BE7A6840F24E
:102420006463C2F2000353F82230184607F10C0728
:10243000BD4680BC704700BF80B483B000AF7860F9
:10244000FEE700BF80B485B000AFF860B9607A6085
:102450003B604FF00003184607F11407BD4680BCEF
:10246000704700BF80B584B000AF786040F28453FD
:10247000C2F200031B68002B08D140F28453C2F261
:10248000000340F2C872C2F200021A6040F28453A4
:10249000C2F200031B68BB60EFF30883FB6040F2ED
:1024A0008453C2F200031A687B681A44FB689A429C
:1024B0000FD94FF000004FF0010145F68842C0F2FD
:1024C00000024FF01903FFF7BDFF4FF00100FFF7C7
:1024D000B3FF40F28453C2F200031A687B681A44C7
:1024E00040F28453C2F200031A60BB68184607F139
:1024F0001007BD4680BD00BF80B483B000AF034667
:10250000FB804EF20013CEF20003B7F906204FEA2B
:102510005212F98801F01F014FF0010000FA01F199
:1025200043F8221007F10C07BD4680BC704700BF7E
:1025300080B483B000AF0346FB804EF20013CEF2AE
:102540000003B7F906204FEA5212F98801F01F0183
:102550004FF0010000FA01F102F1600243F822108D
:1025600007F10C07BD4680BC704700BF80B588B03E
:1025700000AFF860B9601346FB714FF00103FB82B6
:102580004FF00003BB61FA6840F2B463C2F200038B
:102590009A4207D0FA6840F28C63C2F200039A4272
:1025A00000D000BEBB68002B00D100BE01F04AFC89
:1025B000FA6840F2B463C2F200039A422ED1FB687B
:1025C0004FF080421A60FB684FF084425A60FB680B
:1025D0004FF00A021A8140F20C03C2F200031B689A
:1025E000BB6142F20003CEF2040342F20002CEF2DB
:1025F0000402126B42F080021A634FF00A00FFF7E8
:1026000097FF42F20003CEF2040342F20002CEF240
:102610000402126B22F080021A6331E0FA6840F281
:102620000003C4F201031360FA6840F20003C4F22D
:1026300020235360FB684FF00B021A8140F2100315
:10264000C2F200031B68BB6142F20003CEF2040336
:1026500042F20002CEF20402126B42F480721A635C
:102660004FF00B00FFF764FF42F20003CEF20403C9
:1026700042F20002CEF20402126B22F480721A635C
:10268000FB681B684FF000021A71BB68002B21D059
:10269000BA69BB68B2FBF3F3FB61FB6903F00803A3
:1026A000002B06D0FB694FEA131303F10103FB6112
:1026B00003E0FB694FEA1313FB61FA694FF6FF73FE
:1026C0009A4200D900BEFA694FF6FF739A4201D8C8
:1026D000FB69FB82FB685B684FF00102C3F89C2139
:1026E000FB681B68FA8A4FEA122292B2D2B21A71C0
:1026F000FB681B68FA8AD2B21A70FB685B684FF0FD
:102700000002C3F89C21FB681B68FA791A73FB6806
:102710001B684FF00E021A72FB685B684FF00002F4
:10272000C3F81022FB684FF000021A61FB684FF0FB
:102730000002DA60FB684FF000025A61FB684FF05C
:102740000002DA61FA6842F6C923C0F2000313629C
:10275000FB684FF000029A61FB684FF000025A627A
:10276000FB684FF000029A7207F12007BD4680BD5A
:1027700080B489B000AFF860B9607A604FF00003B0
:102780003B61FA6840F2B463C2F200039A4207D098
:10279000FA6840F28C63C2F200039A4200D000BE95
:1027A000BB68002B00D100BE7B68002B00D100BEAF
:1027B000FA6840F2B463C2F200039A4206D0FA68A3
:1027C00040F28C63C2F200039A423DD1BB68002BF9
:1027D0003AD07B68002B37D0FB681B681B7DFB76EB
:1027E000FB689A7AFB7E42EA0303DAB2FB689A72CC
:1027F000FB7E03F02003002B23D04FF01003FB617E
:102800007B680F2B01D87B68FB614FF000037B6175
:102810000EE0FB681B68B9683A690A4412781A70BE
:102820003B6903F101033B617B6903F101037B61B8
:102830007A69FB699A42ECD37A687B69C3EB02033D
:102840007B607B68002BC7D107F12407BD4680BCA5
:10285000704700BF80B487B000AFF860B9607A609D
:102860004FF000033B614FF00003FB75FA6840F244
:10287000B463C2F200039A4207D0FA6840F28C6354
:10288000C2F200039A4200D000BEBB68002B00D108
:1028900000BE7B68002B00D100BEFA6840F2B46332
:1028A000C2F200039A4206D0FA6840F28C63C2F288
:1028B00000039A4234D1BB68002B31D07B68002BD7
:1028C0002ED0FB681B681B7DFB75FB689A7AFB7D2D
:1028D00042EA0303DAB2FB689A7217E0BA683B690E
:1028E0001344FA6812681278D2B21A703B6903F185
:1028F00001033B61FB681B681B7DFB75FB689A7AD3
:10290000FB7D42EA0303DAB2FB689A72FB7D03F0B7
:102910000103DBB2002B03D03A697B689A42DDD316
:102920003B69184607F11C07BD4680BC704700BFD5
:1029300080B582B000AF78600B46FB707A6840F2D9
:10294000B463C2F200039A4207D07A6840F28C6303
:10295000C2F200039A4200D000BE7A6840F2B4632B
:10296000C2F200039A4206D07A6840F28C63C2F247
:1029700000039A4216D17B681B891BB21846FFF7E9
:10298000D7FD7B681B687A6812681279D1B2FA7831
:1029900041EA0202D2B21A717B681B891BB2184647
:1029A000FFF7AAFD07F10807BD4680BD80B584B0DA
:1029B00000AF78607A6840F2B463C2F200039A42D2
:1029C00007D07A6840F28C63C2F200039A4200D0CA
:1029D00000BE7A6840F2B463C2F200039A4206D0A5
:1029E0007A6840F28C63C2F200039A4267D17B6836
:1029F0001B681B7ADBB203F00F03FB73FB7B0C2B12
:102A000054D801A252F823F03D2A0000AD2A00005C
:102A1000592A0000AD2A0000752A0000AD2A0000E6
:102A2000912A0000AD2A0000AD2A0000AD2A000066
:102A3000AD2A0000AD2A0000752A00007B685B6AA1
:102A4000002B00D100BE7B685B6A002B30D07B6816
:102A50005B6A7868984732E07B681B6A002B00D17C
:102A600000BE7B681B6A002B24D07B681B6A7868D9
:102A7000984724E07B68DB69002B00D100BE7B68AF
:102A8000DB69002B18D07B68DB697868984716E013
:102A90007B689B69002B00D100BE7B689B69002B83
:102AA0000CD07B689B697868984708E000BE06E018
:102AB00000BF04E000BF02E000BF00E000BF07F17C
:102AC0001007BD4680BD00BF80B487B000AF7860FE
:102AD0007A6840F2B463C2F200039A4207D07A687F
:102AE00040F28C63C2F200039A4200D000BE7B68C1
:102AF000DB68002B00D100BE7B681B69002B00D176
:102B000000BE7A6840F2B463C2F200039A4206D073
:102B10007A6840F28C63C2F200039A4252D17B6819
:102B2000DB68002B4ED07B681B69002B4AD07B688A
:102B30001B681B7DFB727B689A7AFB7A42EA03036F
:102B4000DAB27B689A72FB7A03F02003002B29D05B
:102B50004FF010033B617B681A697B685B69C3EBCC
:102B600002037B617B690F2B01D87B693B614FF0CE
:102B70000003FB6012E07B681B687A68D1687A68A2
:102B800052690A4412781A707B685B6903F101028A
:102B90007B685A61FB6803F10103FB60FA683B69DB
:102BA0009A42E8D37B685A697B681B699A4209D1CB
:102BB0007B684FF000021A617B685B684FF000028F
:102BC000C3F8842007F11C07BD4680BC704700BFD6
:102BD00080B584B000AFF860B9601346FB71FA6845
:102BE00040F2B463C2F200039A4207D0FA6840F29E
:102BF0008C63C2F200039A4200D000BEBB68002B77
:102C000000D100BEFB79C02B00D900BEFA6840F2AB
:102C1000B463C2F200039A4206D0FA6840F28C63B1
:102C2000C2F200039A4223D1BB68002B20D0FB796B
:102C3000C02B1DD8FB68BA68DA61FB681A68FB799B
:102C400003F0C00343F00A03DBB21372FB681B8975
:102C50001BB21846FFF76CFCFB685B684FF0010283
:102C6000C3F88020FB681B891BB21846FFF744FCA1
:102C700007F11007BD4680BD684620F007018D466C
:102C800089B500AF40F2B460C2F20000FFF78EFEDB
:102C90004FF00A00FFF74CFCBD46BDE88940854671
:102CA000704700BF684620F007018D4689B500AF28
:102CB00040F28C60C2F20000FFF778FE4FF00B008C
:102CC000FFF736FCBD46BDE889408546704700BF2A
:102CD00080B483B000AF0346FB804EF20013CEF207
:102CE0000003B7F906204FEA5212F98801F01F01DC
:102CF0004FF0010000FA01F143F8221007F10C0730
:102D0000BD4680BC704700BF80B483B000AF0346AF
:102D1000FB804EF20013CEF20003B7F906204FEA13
:102D20005212F98801F01F014FF0010000FA01F181
:102D300002F1200243F8221007F10C07BD4680BCC7
:102D4000704700BF80B483B000AF0346FB804EF2F3
:102D50000013CEF20003B7F906204FEA5212F988A9
:102D600001F01F014FF0010000FA01F102F16002D1
:102D700043F8221007F10C07BD4680BC704700BF26
:102D800080B584B000AF786013460A46FA70BB7015
:102D9000BB78FB607A6840F2DC63C2F200039A42BF
:102DA00007D07A6840F25073C2F200039A4200D012
:102DB00000BE00F0DDFE0346BB6078684FF0000106
:102DC0004FF0740202F026FD7A6840F2DC63C2F232
:102DD00000039A422CD17B684FF00E025A827A6827
:102DE00042F20003C4F2000353617A6840F2000328
:102DF000C4F20423936142F20003CEF2040342F2D0
:102E00000002CEF20402126B42F400621A634FF029
:102E10000E00FFF797FF42F20003CEF2040342F2E6
:102E20000002CEF20402126B22F400621A632BE05D
:102E30007B684FF011025A827A6842F20003C4F2B2
:102E4000010353617A6840F20003C4F224239361C2
:102E500042F20003CEF2040342F20002CEF2040278
:102E6000126B42F480521A634FF01100FFF76AFFB1
:102E700042F20003CEF2040342F20002CEF2040258
:102E8000126B22F480521A637B689B691A467B6836
:102E9000DA61FB784FEA43027B681A607B689B69C2
:102EA000FA684FEA920202F00102DA617B689B69DC
:102EB000FA684FEA520202F001025A607B689B698D
:102EC000FA6802F001021A607B685B697A6812682E
:102ED000D2B21A737B689B694FF001029A61B8689D
:102EE00000F058FE07F11007BD4680BD80B586B0E2
:102EF00000AFF8607A600A46FA727B80FA6840F2A6
:102F0000DC63C2F200039A4207D0FA6840F25073C1
:102F1000C2F200039A4200D000BE00F029FE034630
:102F20007B61FB681B7A002B03D1FB684FF0010229
:102F30001A72FB684FF0010283F87220FB7A4FEAA5
:102F40004302FB685A60FB684FF00002DA62FB68DC
:102F50007A681A627A88FB685A62FB684FF000024E
:102F60009A62FB684FF0010283F83C20FB6897F8F7
:102F700020201A74FB6893F85C30DBB2012B05D17A
:102F8000FB684FF0010283F8712004E0FB689B6945
:102F90004FF001025A61FB6893F87030012B11D198
:102FA000FB689B694FF00002DA60FB685B691B7984
:102FB000FB74FB7CDBB2FB74FB685B8A1BB21846BC
:102FC000FFF7C0FEFB685B8A1BB21846FFF780FE66
:102FD000786900F0DFFD07F11807BD4680BD00BF2E
:102FE00080B586B000AFF8607A600A46FA727B80DE
:102FF000FA6840F2DC63C2F200039A4207D0FA6832
:1030000040F25073C2F200039A4200D000BE00F0BA
:10301000AFFD03467B61FB681B7A002B03D1FB6885
:103020004FF002021A72FB684FF0020283F872201E
:10303000FB7A4FEA4302FB685A60FB684FF00102DB
:10304000DA62FB687A681A637A88FB685A63FB68FD
:103050004FF000029A63FB684FF0010283F83C20B6
:10306000FB6897F820201A74FB6893F85C30DBB299
:10307000012B05D1FB684FF0010283F8712004E0B9
:10308000FB689B694FF001025A61FB6893F870304E
:10309000012B11D1FB689B694FF00002DA60FB68DD
:1030A0005B691B79FB74FB7CDBB2FB74FB685B8A9E
:1030B0001BB21846FFF746FEFB685B8A1BB2184638
:1030C000FFF706FE786900F065FD07F11807BD46B9
:1030D00080BD00BF80B586B000AFF8607A600A4658
:1030E000FA727B80FA6840F2DC63C2F200039A4213
:1030F00007D0FA6840F25073C2F200039A4200D03F
:1031000000BE7B88002B00D100BE7B68002B00D165
:1031100000BEBB8C002B00D100BE3B6A002B00D14F
:1031200000BEBB8C002B6AD07B88002B67D000F0E0
:103130001FFD03467B61FB681B7A002B03D1FB68F4
:103140004FF003021A72FB684FF0030283F87220FB
:10315000FB7A4FEA4302FB685A60FB684FF00002BB
:10316000DA62FB687A681A627A88FB685A62FB68DE
:103170004FF000029A62FB683A6A1A63BA8CFB68E5
:103180005A63FB684FF000029A63FB684FF001023C
:1031900083F83C20FB6897F828201A74FB6893F8A2
:1031A0005C30DBB2012B05D1FB684FF0010283F8E4
:1031B000712004E0FB689B694FF001025A61FB68D3
:1031C00093F87030012B11D1FB689B694FF000021E
:1031D000DA60FB685B691B79FB74FB7CDBB2FB7418
:1031E000FB685B8A1BB21846FFF7ACFDFB685B8A85
:1031F0001BB21846FFF76CFD786900F0CBFC07F1B5
:103200001807BD4680BD00BF80B485B000AF7860B0
:1032100039607A6840F2DC63C2F200039A4207D058
:103220007A6840F25073C2F200039A4200D000BEA6
:103230007B683A681A647B6893F83C30FB73FB7BCD
:10324000012BF8D0FB7B184607F11407BD4680BC64
:10325000704700BF80B483B000AF78607B6893F89C
:103260006830002B04D07B689B694FF001029A60A4
:1032700007F10C07BD4680BC704700BF80B584B025
:1032800000AF78604FF00103BB737A6840F2DC63F3
:10329000C2F200039A4207D07A6840F25073C2F239
:1032A00000039A4200D000BE7B685B691B79FB7209
:1032B000FB7ADBB2A3F10803D02B00F21C8401A23D
:1032C00052F823F009360000F73A0000F73A000000
:1032D000F73A0000F73A0000F73A0000F73A00002A
:1032E000F73A000009360000F73A0000F73A00000C
:1032F000F73A0000F73A0000F73A0000F73A00000A
:10330000F73A0000AD360000F73A0000F73A000047
:10331000F73A0000F73A0000F73A0000F73A0000E9
:10332000F73A000089360000F73A0000F73A00004B
:10333000F73A0000F73A0000F73A0000F73A0000C9
:10334000F73A0000AD360000F73A0000F73A000007
:10335000F73A0000F73A0000F73A0000F73A0000A9
:10336000F73A000041370000F73A0000F73A000052
:10337000F73A0000F73A0000F73A0000F73A000089
:10338000F73A00007D360000F73A0000F73A0000F7
:10339000F73A0000F73A0000F73A0000F73A000069
:1033A000F73A000065370000F73A0000F73A0000EE
:1033B000F73A0000F73A0000F73A0000F73A000049
:1033C000F73A0000B5370000F73A0000F73A00007E
:1033D000F73A0000F73A0000F73A0000F73A000029
:1033E000F73A0000D9370000F73A0000F73A00003A
:1033F000F73A0000F73A0000F73A0000F73A000009
:10340000F73A000013380000F73A0000F73A0000DE
:10341000F73A0000F73A0000F73A0000F73A0000E8
:10342000F73A0000B5380000F73A0000F73A00001C
:10343000F73A0000F73A0000F73A0000F73A0000C8
:10344000F73A0000AB380000F73A0000F73A000006
:10345000F73A0000F73A0000F73A0000F73A0000A8
:10346000F73A0000B5380000F73A0000F73A0000DC
:10347000F73A0000F73A0000F73A0000F73A000088
:10348000F73A0000AB380000F73A0000F73A0000C6
:10349000F73A0000F73A0000F73A0000F73A000068
:1034A000F73A0000F7380000F73A0000F73A00005A
:1034B000F73A0000F73A0000F73A0000F73A000048
:1034C000F73A000077380000F73A0000F73A0000BA
:1034D000F73A0000F73A0000F73A0000F73A000028
:1034E000F73A0000F7380000F73A0000F73A00001A
:1034F000F73A0000F73A0000F73A0000F73A000008
:10350000F73A000077380000F73A0000F73A000079
:10351000F73A0000F73A0000F73A0000F73A0000E7
:10352000F73A000053390000F73A0000F73A00007C
:10353000F73A0000F73A0000F73A0000F73A0000C7
:10354000F73A00002B3A0000F73A0000F73A000083
:10355000F73A0000F73A0000F73A0000F73A0000A7
:10356000F73A00002B3A0000F73A0000F73A000063
:10357000F73A0000F73A0000F73A0000F73A000087
:10358000F73A00002B3A0000F73A0000F73A000043
:10359000F73A0000F73A0000F73A0000F73A000067
:1035A000F73A0000BD3A0000F73A0000F73A000091
:1035B000F73A0000F73A0000F73A0000F73A000047
:1035C000F73A0000BD3A0000F73A0000F73A000071
:1035D000F73A0000F73A0000F73A0000F73A000027
:1035E000F73A0000F73A0000F73A0000F73A000017
:1035F000F73A0000F73A0000F73A0000F73A000007
:10360000F73A0000FD3900007B689B694FF000022B
:103610005A617B685B697A685268D2B21A727B68B9
:103620009B697A68D26AC3F800217B68DB6A002B49
:1036300004D17B684FF000029A6207E07B68DB6A86
:10364000012B03D17B684FF000029A637B6893F8EB
:103650007130002B04D07B684FF0000283F871209A
:103660007B681A7A7B6893F872309A4200F067821E
:103670007B6893F872207B681A7269E27B689B69A9
:103680004FF001025A6163E27B689B694FF00102CF
:103690001A617B684FF0020283F83C207B684FF090
:1036A00000021A727868FFF7D5FD51E27B689A6ACA
:1036B0007B685B6A9A420DD27B685A697B68196A9B
:1036C0007B689B6A19440978117203F101027B68D7
:1036D0009A623DE27B681B7A032B09D17B684FF02D
:1036E0000102DA627B689B694FF001025A612FE2A6
:1036F0007B684FF000021A727B681B7C03F00103A9
:103700007B737B687A7B83F870207B7B002B08D1EE
:103710007B689B694FF001021A617868FFF79AFD98
:1037200008E07B685B8A1BB21846FFF7EDFA4FF0A2
:103730000003BB737B684FF0000283F83C2007E274
:103740007B689B694FF001021A617B684FF00202AF
:1037500083F83C207B684FF000021A727868FFF70C
:1037600079FDF5E17B685B6B012B05D97B689B6973
:103770004FF001029A60EBE17B685B6B012B05D196
:103780007B689B694FF000029A60E1E17B689B696E
:103790004FF001029A607B689B694FF001021A6149
:1037A0007B684FF0000283F83C207B684FF00002FA
:1037B0001A72CDE17B689B694FF001021A617B6848
:1037C0004FF0020283F83C207B684FF000021A722F
:1037D0007868FFF73FFDBBE17B681A6B7B689B6BEA
:1037E0001A4479684969097AC9B2117003F1010272
:1037F0007B689A637B689A6B7B685B6B03F1FF3332
:103800009A42C0F09E817B689B694FF000029A60EB
:103810009EE17B681A6B7B689B6B13447A685269E4
:10382000127AD2B21A707B681B7C03F001037B739F
:103830007B687A7B83F870207B7B002B08D17B68C8
:103840009B694FF001021A617868FFF703FD08E0F9
:103850007B685B8A1BB21846FFF756FA4FF00003ED
:10386000BB737B684FF000021A727B684FF0000256
:1038700083F83C206CE17B689B694FF001029A6001
:103880007B684FF000021A727B684FF0000283F8E9
:103890005C207B6893F87130002B00F054817B68CA
:1038A0009B694FF001025A6152E17B684FF00102BF
:1038B00083F871207B684FF004021A727B684FF026
:1038C00000029A657B684FF00002DA607B689B69B2
:1038D0005B69002B09D07B689B694FF000025A613D
:1038E0007B684FF0010283F871207B684FF0010282
:1038F00083F85C202CE17B681B6D002B1CD07B685F
:103900009A6D7B685B6D9A4216D27B685B691B7A05
:103910003B737B681A6D7B689B6D1A44397B117011
:1039200003F101027B689A657B68DB684FEA03223A
:103930003B7B1A447B68DA607B689A6D7B685B6DC1
:103940009A42C0F002817B689B694FF000029A6046
:10395000FEE07B681B7A042B35D17B689A6D7B680F
:103960001B6E9A4203D17B68DA687B68DA647B68F5
:103970005B6E002B21D07B685B6E7A68116D7A6874
:10398000926D92B2786898470346FB73FB7B002BDD
:1039900008D17868FFF75EFC7B689B694FF00102F5
:1039A0009A6017E07B689B694FF000029A607B6821
:1039B0004FF0000283F868200CE07B689B694FF0B1
:1039C00001029A6006E07B684FF00002DA647868D2
:1039D000FFF740FC7B684FF0000283F85C207B68B7
:1039E00093F87130002B04D07B689B694FF0010283
:1039F0005A617B684FF000021A72A9E07B684FF0B1
:103A000000021A727B684FF00002DA647B6893F858
:103A10005C30DBB2012B04D17B684FF0020283F8EB
:103A20005C207868FFF716FC92E0FB7ADBB2A82BEB
:103A30001BD17B684FF005021A727B684FF00002C1
:103A4000DA607B684FF0010283F85C207B689B6939
:103A50005B69002B09D07B689B694FF000025A61BB
:103A60007B684FF0010283F871207B68DA6C7B6819
:103A70009B6C9A4205D37B685B694FF0FF321A72E8
:103A80000CE07B685A697B68596C7B68DB6C194475
:103A90000978117203F101027B68DA647B68DA6CE1
:103AA0007B689B6C9A4252D37B689B694FF0000203
:103AB0009A607B684FF00002DA6449E07B684FF05F
:103AC0000002DA647B689B694FF001029A607B68B0
:103AD0004FF0000283F85C207B6893F87130002B74
:103AE00004D07B689B694FF001025A617B684FF0FC
:103AF00000021A722CE07B689B694FF000025A6149
:103B00007B684FF000021A727B684FF00002DA64A3
:103B10007B6893F83C30DBB2012B04D17B684FF01B
:103B2000020283F83C207B6893F85C30DBB2012B07
:103B30000ED17B684FF0020283F85C2008E000BFE2
:103B400006E000BF04E000BF02E000BF00E000BFED
:103B5000BB7B002B04D07B689B694FF00002DA60CE
:103B60007B685B691B79FB7207F11007BD4680BD5E
:103B700080B582B000AF00F043F903467B604FF0A0
:103B8000010000F04DF97B68184607F10807BD46B3
:103B900080BD00BF80B582B000AF7860786800F06B
:103BA0003FF907F10807BD4680BD00BF684620F019
:103BB00007018D4689B500AF40F2DC60C2F200001B
:103BC000FFF75CFB4FF00E00FFF7BCF8BD46BDE809
:103BD00089408546704700BF684620F007018D4642
:103BE00089B500AF40F25070C2F20000FFF746FB0B
:103BF0004FF01100FFF7A6F8BD46BDE889408546A5
:103C0000704700BF80B483B000AF0346FB804EF224
:103C10000013CEF20003B7F906204FEA5212F988DA
:103C200001F01F014FF0010000FA01F102F1600202
:103C300043F8221007F10C07BD4680BC704700BF57
:103C400080B582B000AF42F20003CEF2040342F22C
:103C50000002CEF20402126B42F480421A634FF06B
:103C600000037B600EE07A6845F62453C0F200033F
:103C700033F812301BB21846FFF7C4FF7B6803F11C
:103C800001037B607B681F2BEDD942F20003CEF26B
:103C9000040342F20002CEF20402126B22F48042CC
:103CA0001A6307F10807BD4680BD00BF80B485B028
:103CB00000AF03463960FB71FB79FB60FB681F2B8B
:103CC00000D900BEFB681F2B08D8FA6845F6A4434C
:103CD000C0F2000353F822303A681A6007F1140763
:103CE000BD4680BC704700BF80B485B000AF0246BF
:103CF0000B46FA71BB71FB79FB60FB681F2B00D987
:103D000000BEFB681F2B09D840F20003C4F2262333
:103D1000FA68B97902F5886243F8221007F11407AE
:103D2000BD4680BC704700BF80B500AF00F09EFA72
:103D300000F0A4F980BD00BF80B584B000AF78600A
:103D40004FF00603FB724FF000033B8125E03A89F8
:103D500040F21C03C2F200034FEA021213441B6834
:103D6000002B16D03A8940F21C03C2F200034FEA3E
:103D7000021213441B68786819464FF0020201F0E2
:103D8000CBFD0346FB60FB68002B02D13B89FB7235
:103D900006E03B8903F101033B813B89052BD6D922
:103DA000FB7A184607F11007BD4680BD80B485B088
:103DB00000AF0346FB71FA7940F21C03C2F2000324
:103DC0004FEA02121344DB88FB8140F20003C4F285
:103DD0000203FA8902F5C06253F822304FEA134316
:103DE000BB81BB891BB2002B02DA4FF00003BB8101
:103DF000BB89184607F11407BD4680BC704700BF59
:103E000080B483B000AF4FF000037B60EFF310830A
:103E10007B607B68184607F10C07BD4680BC704785
:103E200080B483B000AF78607B6883F3108807F1BB
:103E30000C07BD4680BC704780B400AFBD4680BC57
:103E4000704700BF80B58AB000AF45F66453C0F23A
:103E50000003BC460FCB8CE80F0042F20003CEF209
:103E600004039B6C4FEA930303F003034FEA8303BD
:103E700007F12802134453F8283C3B6142F2000347
:103E8000CEF204039B6C4FEA131303F003034FEAD3
:103E9000830307F12802134453F8283C7B6142F264
:103EA0000003CEF204039B6C4FEA931303F0030369
:103EB0004FEA830307F12802134453F8283CBB61FF
:103EC00042F20003CEF20403DB6C4FEA132303F04B
:103ED0001F033B6242F20003CEF20403DB6C4FEAA5
:103EE000533303F001037B623B6A03F10103FB617F
:103EF0007B6A002B03D0FB694FEA4303FB6100F0B0
:103F000049F8024640F20803C2F200031A6040F288
:103F10000803C2F200031A683B69B2FBF3F240F2F5
:103F20000C03C2F200031A6040F20803C2F200035D
:103F30001A687B69B2FBF3F240F21003C2F200038D
:103F40001A6040F20803C2F200031A68BB69B2FBB0
:103F5000F3F240F21403C2F200031A6040F20803C5
:103F6000C2F200031A68FB69B2FBF3F240F21803D5
:103F7000C2F200031A6040F20803C2F200031A689A
:103F800040F20403C2F200031A6007F12807BD469D
:103F900080BD00BF80B48BB000AF4FF000037B60EA
:103FA00040F61C03C6F20803BB6040F23023C6F2A1
:103FB0000803FB60FB681B6823F070433B613A69B0
:103FC00041F2CF13C0F2A1539A4208D14EF62C739E
:103FD000C6F201037B617B691B687B603DE0BB68C7
:103FE0001A6844F24133C4F654439A4235D140F63C
:103FF0004003C6F20803BB61BB691B68FB61FB6938
:1040000023F07F43FB61FA6940F20033C0F2010301
:104010009A4222D9FA694FF6FF73C0F201039A421D
:1040200008D841F22C63C6F208033B623B6A1B6866
:104030007B6012E0FA694FF6FF73C0F202039A4206
:1040400008D841F6AC63C6F208037B627B6A1B6842
:104050007B6002E04FF000037B607B68002B05D1A2
:1040600000BE47F64003C0F27D137B607B681846B4
:1040700007F12C07BD4680BC704700BF80B487B0F5
:1040800000AF40F20003C4F20203D3F8C830FB6073
:1040900040F20003C4F202034FF00002C3F8C8204C
:1040A0004FF00003FB7139E0FB794FEA53037B7457
:1040B00040F20002C4F20202797C0B464FEA43034D
:1040C0000B444FEA0313134403F508731B79BB74C5
:1040D000FB7903F00103FB74FB7C002B0DD0F97915
:1040E000BB7C4FEA5313DBB21A4602F0030240F2E4
:1040F0008853C2F200035A540CE0F979BB7C4FEAB2
:104100005303DBB21A4602F0030240F28853C2F2B4
:1041100000035A54FB7903F10103FB71FB79092B6E
:10412000C2D94FF00003BB6073E0BA6840F21C03D1
:10413000C2F200034FEA021213441B79BB75BA7D29
:1041400045F6BC53C0F200039B5C3B75BA7D45F657
:104150008C53C0F200039B5C012B07D0022B27D0AD
:10416000002B47D14FF00003FB7547E03B7DFF2B51
:1041700000D100BE40F20002C4F20202397D0B46BB
:104180004FEA43030B444FEA0313134403F5087348
:104190001B7A7B757B7D03F00103DBB2002B03D020
:1041A0004FF00003FB7529E04FF00103FB7525E09C
:1041B0003B7DFF2B00D100BE40F20002C4F20202A0
:1041C000397D0B464FEA43030B444FEA0313134474
:1041D00003F50A731B797B757B7D03F00103DBB26A
:1041E000002B03D04FF00003FB7507E04FF00203F4
:1041F000FB7503E000BE4FF00003FB75BA6840F2A8
:104200009453C2F20003F97D9954BB6803F1010392
:10421000BB60BB68052B88DD40F20003C4F20203DB
:10422000FA68C3F8C82007F11C07BD4680BC704778
:1042300080B483B000AF0346FB804EF20013CEF291
:104240000003B7F906204FEA5212F98801F01F0166
:104250004FF0010000FA01F102F1600243F8221070
:1042600007F10C07BD4680BC704700BF80B400AFAB
:10427000BD4680BC704700BF80B483B000AF03462A
:10428000FB7107F10C07BD4680BC7047684620F003
:1042900007018D4689B500AF4FF00000FFF7ECFF36
:1042A0004FF07600FFF7C4FFBD46BDE88940854664
:1042B000704700BF684620F007018D4689B500AF02
:1042C0004FF00100FFF7D8FF4FF07700FFF7B0FF86
:1042D000BD46BDE889408546704700BF684620F06E
:1042E00007018D4689B500AF4FF00200FFF7C4FF0C
:1042F0004FF07800FFF79CFFBD46BDE8894085463A
:10430000704700BF684620F007018D4689B500AFB1
:104310004FF00300FFF7B0FF4FF07900FFF788FF81
:10432000BD46BDE889408546704700BF684620F01D
:1043300007018D4689B500AF4FF00400FFF79CFFE1
:104340004FF07A00FFF774FFBD46BDE8894085460F
:10435000704700BF684620F007018D4689B500AF61
:104360004FF00500FFF788FF4FF07B00FFF760FF7D
:10437000BD46BDE889408546704700BF684620F0CD
:1043800007018D4689B500AF4FF00600FFF774FFB7
:104390004FF07C00FFF74CFFBD46BDE889408546E5
:1043A000704700BF684620F007018D4689B500AF11
:1043B0004FF00700FFF760FF4FF07D00FFF738FF79
:1043C000BD46BDE889408546704700BF684620F07D
:1043D00007018D4689B500AF4FF00800FFF74CFF8D
:1043E0004FF07E00FFF724FFBD46BDE889408546BB
:1043F000704700BF684620F007018D4689B500AFC1
:104400004FF00900FFF738FF4FF07F00FFF710FF74
:10441000BD46BDE889408546704700BF684620F02C
:1044200007018D4689B500AF4FF00A00FFF724FF62
:104430004FF08000FFF7FCFEBD46BDE88940854691
:10444000704700BF684620F007018D4689B500AF70
:104450004FF00B00FFF710FF4FF08100FFF7E8FE71
:10446000BD46BDE889408546704700BF684620F0DC
:1044700007018D4689B500AF4FF00C00FFF7FCFE39
:104480004FF08200FFF7D4FEBD46BDE88940854667
:10449000704700BF684620F007018D4689B500AF20
:1044A0004FF00D00FFF7E8FE4FF08300FFF7C0FE6E
:1044B000BD46BDE889408546704700BF684620F08C
:1044C00007018D4689B500AF4FF00E00FFF7D4FE0F
:1044D0004FF08400FFF7ACFEBD46BDE8894085463D
:1044E000704700BF684620F007018D4689B500AFD0
:1044F0004FF00F00FFF7C0FE4FF08500FFF798FE6A
:10450000BD46BDE889408546704700BF684620F03B
:1045100007018D4689B500AF4FF01000FFF7ACFEE4
:104520004FF08600FFF784FEBD46BDE88940854612
:10453000704700BF684620F007018D4689B500AF7F
:104540004FF01100FFF798FE4FF08700FFF770FE65
:10455000BD46BDE889408546704700BF684620F0EB
:1045600007018D4689B500AF4FF01200FFF784FEBA
:104570004FF08800FFF75CFEBD46BDE889408546E8
:10458000704700BF684620F007018D4689B500AF2F
:104590004FF01300FFF770FE4FF08900FFF748FE61
:1045A000BD46BDE889408546704700BF684620F09B
:1045B00007018D4689B500AF4FF01400FFF75CFE90
:1045C0004FF08A00FFF734FEBD46BDE889408546BE
:1045D000704700BF684620F007018D4689B500AFDF
:1045E0004FF01500FFF748FE4FF08B00FFF720FE5D
:1045F000BD46BDE889408546704700BF684620F04B
:1046000007018D4689B500AF4FF01600FFF734FE65
:104610004FF08C00FFF70CFEBD46BDE88940854693
:10462000704700BF684620F007018D4689B500AF8E
:104630004FF01700FFF720FE4FF08D00FFF7F8FD59
:10464000BD46BDE889408546704700BF684620F0FA
:1046500007018D4689B500AF4FF01800FFF70CFE3B
:104660004FF08E00FFF7E4FDBD46BDE8894085466A
:10467000704700BF684620F007018D4689B500AF3E
:104680004FF01900FFF7F8FD4FF08F00FFF7D0FD56
:10469000BD46BDE889408546704700BF684620F0AA
:1046A00007018D4689B500AF4FF01A00FFF7E4FD12
:1046B0004FF09000FFF7BCFDBD46BDE88940854640
:1046C000704700BF684620F007018D4689B500AFEE
:1046D0004FF01B00FFF7D0FD4FF09100FFF7A8FD52
:1046E000BD46BDE889408546704700BF684620F05A
:1046F00007018D4689B500AF4FF01C00FFF7BCFDE8
:104700004FF09200FFF794FDBD46BDE88940854615
:10471000704700BF684620F007018D4689B500AF9D
:104720004FF01D00FFF7A8FD4FF09300FFF780FD4D
:10473000BD46BDE889408546704700BF684620F009
:1047400007018D4689B500AF4FF01E00FFF794FDBD
:104750004FF09400FFF76CFDBD46BDE889408546EB
:10476000704700BF684620F007018D4689B500AF4D
:104770004FF01F00FFF780FD4FF09500FFF758FD49
:10478000BD46BDE889408546704700BF81F00041C5
:1047900002E000BF83F0004330B54FEA41044FEA26
:1047A000430594EA050F08BF90EA020F1FBF54EAC1
:1047B000000C55EA020C7FEA645C7FEA655C00F05D
:1047C000E2804FEA5454D4EB5555B8BF6D420CDD2E
:1047D0002C4480EA020281EA030382EA000083EAB1
:1047E000010180EA020281EA0303362D88BF30BD51
:1047F00011F0004F4FEA01314FF4801C4CEA1131A7
:1048000002D0404261EB410113F0004F4FEA033305
:104810004CEA133302D0524263EB430394EA050F90
:1048200000F0A780A4F10104D5F1200E0DDB02FAFF
:104830000EFC22FA05F2801841F1000103FA0EF293
:10484000801843FA05F359410EE0A5F120050EF159
:10485000200E012A03FA0EFC28BF4CF0020C43FA8A
:1048600005F3C01851EBE37101F0004507D54FF097
:10487000000EDCF1000C7EEB00006EEB0101B1F5E7
:10488000801F1BD3B1F5001F0CD349085FEA30002D
:104890004FEA3C0C04F101044FEA445212F5800F38
:1048A00080F09A80BCF1004F08BF5FEA500C50F1D5
:1048B000000041EB045141EA050130BD5FEA4C0CB8
:1048C000404141EB010111F4801FA4F10104E9D141
:1048D00091F0000F04BF01460020B1FA81F308BF38
:1048E0002033A3F10B03B3F120020CDA0C3208DD04
:1048F00002F1140CC2F10C0201FA0CF021FA02F1DF
:104900000CE002F11402D8BFC2F1200C01FA02F14E
:1049100020FA0CFCDCBF41EA0C019040E41AA2BF73
:1049200001EB0451294330BD6FEA04041F3C1CDA3B
:104930000C340EDC04F11404C4F1200220FA04F05B
:1049400001FA02F340EA030021FA04F345EA030105
:1049500030BDC4F10C04C4F1200220FA02F001FAC7
:1049600004F340EA0300294630BD21FA04F0294649
:1049700030BD94F0000F83F4801306BF81F48011E2
:104980000134013D4EE77FEA645C18BF7FEA655C55
:1049900029D094EA050F08BF90EA020F05D054EA27
:1049A000000C04BF1946104630BD91EA030F1EBF2C
:1049B0000021002030BD5FEA545C05D14000494130
:1049C00028BF41F0004130BD14F580043CBF01F523
:1049D000801130BD01F0004545F0FE4141F4700109
:1049E0004FF0000030BD7FEA645C1ABF19461046E4
:1049F0007FEA655C1CBF0B46024650EA013406BFE5
:104A000052EA033591EA030F41F4002130BD00BFA3
:104A100090F0000F04BF0021704730B54FF4806460
:104A200004F132044FF000054FF0000150E700BFE1
:104A300090F0000F04BF0021704730B54FF4806440
:104A400004F1320410F0004548BF40424FF000012D
:104A50003EE700BF42004FEAE2014FEA31014FEA70
:104A600002701FBF12F07F4393F07F4F81F06051BF
:104A7000704792F0000F14BF93F07F4F704730B52E
:104A80004FF4607401F0004521F0004120E700BFC1
:104A900050EA010208BF704730B54FF000050AE048
:104AA00050EA010208BF704730B511F0004502D549
:104AB000404261EB41014FF4806404F132045FEA4B
:104AC000915C3FF4DCAE4FF003025FEADC0C18BFF0
:104AD00003325FEADC0C18BF033202EBDC02C2F1E6
:104AE000200300FA03FC20FA02F001FA03FE40EA78
:104AF0000E0021FA02F11444C1E600BF70B54FF078
:104B0000FF0C4CF4E06C1CEA11541DBF1CEA135559
:104B100094EA0C0F95EA0C0F00F0DEF82C4481EAC1
:104B2000030621EA4C5123EA4C5350EA013518BFE1
:104B300052EA033541F4801143F4801338D0A0FBCE
:104B400002CE4FF00005E1FB02E506F00042E0FB7B
:104B500003E54FF00006E1FB03569CF0000F18BF81
:104B60004EF0010EA4F1FF04B6F5007F64F5407429
:104B700004D25FEA4E0E6D4146EB060642EAC621BC
:104B800041EA55514FEAC52040EA5E504FEACE2E29
:104B9000B4F1FD0C88BFBCF5E06F1ED8BEF1004F2C
:104BA00008BF5FEA500E50F1000041EB045170BDA8
:104BB00006F0004646EA010140EA020081EA0301EC
:104BC000B4EB5C04C2BFD4EB0C0541EA045170BDE8
:104BD00041F480114FF0000E013C00F3AB8014F162
:104BE000360FDEBF002001F0004170BDC4F10004AB
:104BF000203C35DA0C341BDC04F11404C4F120052C
:104C000000FA05F320FA04F001FA05F240EA020086
:104C100001F0004221F0004110EBD37021FA04F6BC
:104C200042EB06015EEA430E08BF20EAD37070BD76
:104C3000C4F10C04C4F1200500FA04F320FA05F0D5
:104C400001FA04F240EA020001F0004110EBD370D7
:104C500041F100015EEA430E08BF20EAD37070BD47
:104C6000C4F1200500FA05F24EEA020E20FA04F320
:104C700001FA05F243EA020321FA04F001F00041CF
:104C800021FA04F220EA020000EBD3705EEA430E40
:104C900008BF20EAD37070BD94F0000F0FD101F06F
:104CA0000046400041EB010111F4801F08BF013CA8
:104CB000F7D041EA060195F0000F18BF704703F0E6
:104CC0000046520043EB030313F4801F08BF013D6D
:104CD000F7D043EA0603704794EA0C0F0CEA135529
:104CE00018BF95EA0C0F0CD050EA410618BF52EAE3
:104CF0004306D1D181EA030101F000414FF00000E9
:104D000070BD50EA410606BF1046194652EA4306F6
:104D100019D094EA0C0F02D150EA013613D195EA6A
:104D20000C0F05D152EA03361CBF104619460AD1B2
:104D300081EA030101F0004141F0FE4141F47001BC
:104D40004FF0000070BD41F0FE4141F4780170BDAC
:104D500070B54FF0FF0C4CF4E06C1CEA11541DBF11
:104D60001CEA135594EA0C0F95EA0C0F00F0A7F813
:104D7000A4EB050481EA030E52EA03354FEA013140
:104D800000F088804FEA03334FF0805545EA131353
:104D900043EA12634FEA022245EA111545EA10651B
:104DA0004FEA00260EF000419D4208BF964244F1B2
:104DB000FD0404F5407402D25B084FEA3202B61AD1
:104DC00065EB03055B084FEA32024FF480104FF4A5
:104DD000002CB6EB020E75EB030E22BFB61A754619
:104DE00040EA0C005B084FEA3202B6EB020E75EBAC
:104DF000030E22BFB61A754640EA5C005B084FEA14
:104E00003202B6EB020E75EB030E22BFB61A7546E0
:104E100040EA9C005B084FEA3202B6EB020E75EBEB
:104E2000030E22BFB61A754640EADC0055EA060EAC
:104E300018D04FEA051545EA16754FEA06164FEAEF
:104E4000C30343EA52734FEAC2025FEA1C1CC0D19B
:104E500011F4801F0BD141EA00014FF000004FF028
:104E6000004CB6E711F4801F04BF01430020B4F1E9
:104E7000FD0C88BFBCF5E06F3FF6AFAEB5EB030CA1
:104E800004BFB6EB020C5FEA500C50F1000041EB9E
:104E9000045170BD0EF0004E4EEA113114EB5C046B
:104EA000C2BFD4EB0C0541EA045170BD41F480113E
:104EB0004FF0000E013C90E645EA060E8DE60CEA46
:104EC000135594EA0C0F08BF95EA0C0F3FF43BAF63
:104ED00094EA0C0F0AD150EA01347FF434AF95EA1A
:104EE0000C0F7FF425AF104619462CE795EA0C0FFE
:104EF00006D152EA03353FF4FDAE1046194622E7CB
:104F000050EA410618BF52EA43067FF4C5AE50EAA4
:104F100041047FF40DAF52EA43057FF4EBAE12E794
:104F20004FF0FF3C06E000BF4FF0010C02E000BF75
:104F30004FF0010C4DF804CD4FEA410C7FEA6C5C58
:104F40004FEA430C18BF7FEA6C5C1BD001B050EAFB
:104F5000410C0CBF52EA430C91EA030F02BF90EAE6
:104F6000020F0020704710F1000F91EA030F58BFA5
:104F7000994208BF90422CBFD8176FEAE37040F007
:104F8000010070474FEA410C7FEA6C5C02D150EAA5
:104F9000013C07D14FEA430C7FEA6C5CD6D152EA60
:104FA000033CD3D05DF8040B704700BF8446104625
:104FB00062468C461946634600E000BF01B5FFF724
:104FC000B7FF002848BF10F1000F01BD4DF808EDF4
:104FD000FFF7F4FF0CBF012000205DF808FB00BFC5
:104FE0004DF808EDFFF7EAFF34BF012000205DF81F
:104FF00008FB00BF4DF808EDFFF7E0FF94BF01206C
:1050000000205DF808FB00BF4DF808EDFFF7CEFF6C
:1050100094BF012000205DF808FB00BF4DF808EDAB
:10502000FFF7C4FF34BF012000205DF808FB00BF7C
:105030004A0011D212F5001211D20DD56FF4787317
:10504000B3EB62520ED44FEAC12343F0004343EA6C
:10505000505323FA02F070474FF00000704750EAB7
:10506000013002D14FF0FF3070474FF00000704721
:1050700070B545F6686645F66865C0F20006C0F290
:105080000005761BB61006D0002455F824300134F4
:105090009847A642F9D845F6686545F66C66C0F2B1
:1050A0000005C0F20006761B00F0D2FEB61006D056
:1050B000002455F8243001349847A642F9D870BD31
:1050C00040F27C030146C2F20003186800F0CCBC39
:1050D00040F27C030146C2F20003186800F000B8F9
:1050E0002DE9F04F01F10B04162C83B006462FD8A2
:1050F000002310248C422CBF194643F001010029E3
:1051000030D1304600F0F0FBB4F5FC7F2ED24FEAF0
:10511000D40E40F27015C2F2000505EBCE02D36842
:10512000934200F006825A6803F10805D9683046B8
:1051300022F0030C9A6863445C688A6044F00104BE
:10514000D1605C6000F0D2FB284603B0BDE8F08F70
:1051500024F00704E30F8C422CBF194643F00101F1
:105160000029CED00C2300253360EDE75FEA542EF2
:1051700004BF4FEAD40E4FEACE0040F0908040F2D8
:105180007015C2F200052818C368984206D10DE0D8
:10519000002A80F26F81DB68984207D0596821F0BD
:1051A00003010A1B0F2AF3DD0EF1FF3E0EF1010E83
:1051B00040F27017C2F2000707F108018B689942AC
:1051C00008BF7A6826D05A6822F0030CC4EB0C02A0
:1051D0000F2A00F39481002AC960896080F29980C7
:1051E000BCF5007F80F065814FEADC0C4FF0010ACE
:1051F0007A6807EBCC004FEAAC0C0AFA0CFCD860DA
:10520000D0F808804CEA02027A60C3F80880C8F837
:105210000C3083604FF0010C4FEAAE030CFA03FC34
:10522000944500F2828012EA0C0F08D12EF0030E92
:105230004FEA4C0C0EF1040E12EA0C0FF8D007EBFB
:10524000CE09F246C846D8F80C30984507D168E137
:10525000002A80F27881DB68984500F06281586806
:1052600020F00300021B0F2AF2DD1D461F19D3F8A0
:105270000CC044F0010E55F8084F3046BA5042F0C9
:105280000102C3F804E0CCF80840C4F80CC08F60F9
:10529000CF607A60B960F96000F028FB54E7BEF196
:1052A000040F9EBF4FEA941E0EF1380E4FEACE0057
:1052B0007FF665AFBEF1140F9CBF0EF15B0E4FEA97
:1052C000CE007FF65CAFBEF1540F9EBF4FEA143E96
:1052D0000EF16E0E4FEACE007FF651AFBEF5AA7FFB
:1052E0009EBF4FEAD43E0EF1770E4FEACE007FF616
:1052F00046AF40F254539E4595BF4FEA944E4FF44B
:105300007C700EF17C0E4FF07E0E98BF4FEACE00FF
:1053100035E703EB0C0203F108053046536843F010
:105320000103536000F0E2FA0EE7D7F80880D8F8DE
:10533000043023F00309C4EB09024C4594BF002359
:1053400001230F2AD8BF43F00103002B00F0A180F6
:1053500040F29C5BD5F80824C2F2000BDBF8003069
:1053600010331B19B2F1FF3F06D003F57E631F33E4
:1053700023F47E6323F01F0319463046019300F0A7
:10538000B7FA019BB0F1FF3F824600F0F48008EBD2
:105390000901814200F2EC80DBF804209A185145A3
:1053A000CBF8042000F04581D5F8085440F2701085
:1053B000C2F20000B5F1FF3F08BFC0F808A403D057
:1053C0005244511ACBF804101AF00705304617BFA3
:1053D000C5F108054FF48055AA4405F5805553449E
:1053E0001B051B0DED1A294600F082FAB0F1FF3FB4
:1053F00000F02C81CAEB0001491941F00101DBF8F2
:10540000042040F29C53C7F808A0C2F20003AA1877
:10541000B845CBF80420CAF8041017D0B9F10F0F23
:1054200040F2DF80A9F10C01052521F0070108EB0E
:1054300001000F2985604560D8F8040000F00100E4
:1054400041EA0000C8F8040000F2AC80D04640F207
:105450009C53DBF82C10C2F200038A42DBF83010B8
:1054600088BFDA6240F29C53C2F200038A4288BFCE
:105470001A6382E05C189A68D9683046666803F15E
:1054800008058A6046F00103D160636000F02EFADF
:105490005AE608EB040342F0010244F001043046EE
:1054A000C8F8044008F108055A60BB6000F01EFA15
:1054B0004AE64FEA5C22042A54D9142A00F2898071
:1054C0005B324FEAC208A84440F27017C2F20007EC
:1054D000D8F80800404503D16FE08068804504D0CB
:1054E000426822F003029445F7D3D0F80CC0C3F809
:1054F0000CC098607A68C360CCF808308AE61F193F
:10550000304644F00104CF605C6003F10805BA50F6
:1055100042F001028F607A60B960F96000F0E6F94C
:1055200012E60AF1010A1AF0030F5FD003F108082E
:1055300089E603F10802D3689A4208BF0EF1020E11
:105540003FF436AEEFE51D461918DA68304655F8D7
:10555000083F4C68936044F00104DA604C6000F04E
:10556000C5F9F1E54FEA9C1238324FEAC208AAE7C2
:10557000B8453FF411AFD7F80880D8F8042022F0DE
:105580000302944294BF00230123121B0F2AD8BFA9
:1055900043F00103002B3FF47CAF3046002500F0C0
:1055A000A5F9D1E508F108013046019300F05CFA55
:1055B000019BD7F808805A6849E74FF0010AD7F8ED
:1055C0000480921084460AFA02F248EA02027A60E3
:1055D0008DE7542A24D84FEA1C326E324FEAC208B3
:1055E00071E70123D046CAF80430C6E74A461EF0E8
:1055F000030F13460EF1FF3E33D053F808299A42A9
:10560000F5D07B684FEA4C0C9C453FF68EAEBCF162
:10561000000F3FF48AAE1CEA030F27D0D6460EE6F1
:10562000B2F5AA7F15D84FEADC3277324FEAC208CA
:1056300049E70805000D00287FF4B6AED7F80880CA
:105640004B4443F00103C8F8043000E70121002572
:10565000D5E640F2545082420DD94FF47C787E2238
:1056600031E77B6823EA0C037B60CBE74FEA4C0C05
:105670000AF1040ACFE74FEA9C427C324FEAC208A3
:1056800021E700BF032A2DE9F0070BD83AB1002328
:1056900011F803C000F803C001339342F8D1BDE80C
:1056A000F007704782180C46034603E014F8011C0B
:1056B00003F8011C03F003061946A4460133013424
:1056C000002EF3D11CF00304634608BFC1EB020CAB
:1056D00068D06542C4F1040A0CEB050733464FEA73
:1056E000CA0A5CF805604FEAC408551A08E057F882
:1056F000044F264604FA0AF449EA0404CC50043361
:105700005C18032D26FA08F9A5F104050CEB030635
:10571000EDDC002302E0F15CE15401331919914200
:10572000F9D3BCE753F8404C41F8404C53F83C4C9B
:1057300041F83C4C53F8384C41F8384C53F8344C51
:1057400041F8344C53F8304C41F8304C53F82C4C61
:1057500041F82C4C53F8284C41F8284C53F8244C71
:1057600041F8244C53F8204C41F8204C53F81C4C81
:1057700041F81C4C53F8184C41F8184C53F8144C91
:1057800041F8144C53F8104C41F8104C53F80C4CA1
:1057900041F80C4C53F8084C41F8084C53F8044CB1
:1057A00041F8044C1C460D4640334031BCF13F0FDC
:1057B000ACF1400CB6DC21462B46541B0FE051F8EF
:1057C000105C43F8105C51F80C5C43F80C5C51F829
:1057D000085C43F8085C51F8045C43F8045C0F2C47
:1057E0000D469C4601F1100103F11003A4F11004D1
:1057F000E5DCCCEB0201002303E0EC584CF803405D
:1058000004335E19032903EB0C04A1F10401F4DC59
:105810007FE700BF032AC9B230B407D822B1002302
:10582000C15401339342FBD130BC704700EB020CF2
:10583000034601E003F8011C03F003041A46013398
:10584000002CF7D14FF00133C2EB0C0403FB01F342
:105850001FE042F8403C42F83C3C42F8383C42F8F9
:10586000343C42F8303C42F82C3C42F8283C42F8A8
:10587000243C42F8203C42F81C3C42F8183C42F8D8
:10588000143C42F8103C42F80C3C42F8083C42F808
:10589000043C154640323F2CA4F14004D9DC2A4692
:1058A000C5EB0C0407E042F8103C42F80C3C42F80F
:1058B000083C42F8043C154610320F2CA4F11004A9
:1058C000F1DC2A46C5EB0C0501E042F8043C144625
:1058D0000432032DA5F10405F7DC01E004F8011BF7
:1058E0006445FBD3A0E700BF704700BF704700BF0F
:1058F00038B540F2C474C2F20004054608460023DD
:105900002360FCF7AFFDB0F1FF3F00D038BD236846
:10591000002BFBD02B6038BD30B41346002A43D097
:1059200041EA000212F0030F25D1032B04460D4675
:105930003DD9026809688A4239D1043B34D0A2F1CA
:10594000013121EA020212F0803F0DD02CE02268E2
:105950002968A2F101308A4220EA020027D1043BE3
:1059600022D010F0803F1FD104340435032BEED831
:1059700020462946F3B10478013B91F800C0644504
:105980000FD18BB184B1013B002202E063B15CB165
:10599000013B84188D180132647895F801C0644584
:1059A000F4D0CCEB040000E0002030BC704720466F
:1059B0002946E0E7247895F800C0CCEB0400F4E732
:1059C000F8B540F27014C2F200040F460546FFF726
:1059D0008BFFA3685E6826F0030606F57E630F332F
:1059E000DF1B3F0B013F3F03B7F5805F07DB002163
:1059F0002846FFF77DFFA368F318834204D02846AA
:105A0000FFF774FF0020F8BD79422846FFF770FFCA
:105A1000B0F1FF3F10D0A26840F2A053C2F20003E1
:105A2000F61B46F00106284656601A68D71B1F6011
:105A3000FFF75CFF0120F8BD00212846FFF758FF63
:105A4000A368C21A0F2ADADD40F2785440F2A0515E
:105A5000C2F20004C2F2000142F001022468001BFD
:105A600008605A60CBE700BF2DE9F04105460C46BF
:105A7000002900F08880FFF737FFA4F1080240F208
:105A800070105668C2F2000026F00103D0F808C07A
:105A9000D1188C454F6827F0030700F0958016F069
:105AA00001064F605FD00026CC19646814F0010F26
:105AB00006D1DB19002E7AD08C68C9688C60E16051
:105AC00043F00101D3505160002E47D1B3F5007F60
:105AD0005BD3590A04299EBF4FEA931C0CF1380C82
