:0200000460009A
:100000000000012099020000090300000B0300001A
:100010000D0300000F0300001103000000000000AA
:1000200000000000000000000000000013030000BA
:100030001503000000000000170300001903000072
:100040001B0300001D0300001F030000210300002C
:1000500023030000250300002703000029030000FC
:100060002B0300002D030000D1480000FD480000D4
:10007000330300003503000037030000390300009C
:100080003B0300003D0300003F030000410300006C
:10009000E5300000FD300000470300004903000088
:1000A0004B03000000000000000000000000000002
:1000B000000000000000000000000000B11B000074
:1000C0004F030000510300005303000055030000DC
:1000D00057030000590300005B0300005D030000AC
:1000E0005F0300006103000063030000650300007C
:1000F00067030000690300006B0300006D0300004C
:100100006F0300007103000073030000750300001B
:1001100077030000790300007B0300007D030000EB
:100120007F030000810300008303000085030000BB
:1001300087030000890300008B0300008D0300008B
:100140008F0300009103000093030000950300005B
:1001500097030000990300009B0300009D0300002B
:100160009F030000A1030000A3030000A5030000FB
:10017000A7030000A9030000AB030000AD030000CB
:10018000AF030000B1030000B3030000B50300009B
:10019000B7030000B9030000BB030000BD0300006B
:1001A000BF030000C1030000C3030000C50300003B
:1001B000C7030000C9030000CB030000CD0300000B
:1001C000CF030000D1030000D3030000D5030000DB
:1001D000D7030000D9030000DB030000DD030000AB
:1001E000DF030000E1030000E3030000E50300007B
:1001F000E7030000E9030000EB030000ED0300004B
:10020000EF030000F1030000F3030000F50300001A
:10021000F7030000F9030000FB030000FD030000EA
:10022000FF030000010400000304000005040000B7
:1002300007040000090400000B0400000D04000086
:100240000F04000011040000130400001504000056
:1002500017040000190400001B0400001D04000026
:100260001F040000210400002304000025040000F6
:1002700027040000290400002B0400002D040000C6
:100280002F04000031040000330400003504000096
:100290003704000039040000684880476848002897
:1002A0000BD168486849694A884206D091421CBF10
:1002B00050F8043B41F8043BF8D165486549664A6B
:1002C000884206D091421CBF50F8043B41F8043BE1
:1002D000F8D162486249634A914218BF41F8040B61
:1002E000FAD1000000000000000000000000000043
:1002F000DFF874010FF2030E00474FF000004FF0DB
:100300000001DFF868F1FEE7FEE7FEE7FEE7FEE743
:10031000FEE7FEE7FEE7FEE7FEE7FEE7FEE7FEE7B5
:10032000FEE7FEE7FEE7FEE7FEE7FEE7FEE7FEE7A5
:10033000FEE7FEE7FEE7FEE7FEE7FEE7FEE7FEE795
:10034000FEE7FEE7FEE7FEE7FEE7FEE7FEE7FEE785
:10035000FEE7FEE7FEE7FEE7FEE7FEE7FEE7FEE775
:10036000FEE7FEE7FEE7FEE7FEE7FEE7FEE7FEE765
:10037000FEE7FEE7FEE7FEE7FEE7FEE7FEE7FEE755
:10038000FEE7FEE7FEE7FEE7FEE7FEE7FEE7FEE745
:10039000FEE7FEE7FEE7FEE7FEE7FEE7FEE7FEE735
:1003A000FEE7FEE7FEE7FEE7FEE7FEE7FEE7FEE725
:1003B000FEE7FEE7FEE7FEE7FEE7FEE7FEE7FEE715
:1003C000FEE7FEE7FEE7FEE7FEE7FEE7FEE7FEE705
:1003D000FEE7FEE7FEE7FEE7FEE7FEE7FEE7FEE7F5
:1003E000FEE7FEE7FEE7FEE7FEE7FEE7FEE7FEE7E5
:1003F000FEE7FEE7FEE7FEE7FEE7FEE7FEE7FEE7D5
:10040000FEE7FEE7FEE7FEE7FEE7FEE7FEE7FEE7C4
:10041000FEE7FEE7FEE7FEE7FEE7FEE7FEE7FEE7B4
:10042000FEE7FEE7FEE7FEE7FEE7FEE7FEE7FEE7A4
:10043000FEE7FEE7FEE7FEE7FEE700006953000087
:10044000010000007004006070040000080000203B
:100450007C9B006008000020480A0020000000008B
:10046000480A0020680F00203D660000652A000051
:1004700040F64823C2F200031A780AB90120187026
:10048000704700BF40F20800C2F2000008B50368E0
:100490002BB140F20003C0F2000303B1984708BD3E
:1004A00080B582B000AF786039607B684FF00002A1
:1004B0001A607B683A685A603B684FEAC303184683
:1004C00006F0ECF803461A467B689A6007F10807C5
:1004D000BD4680BD80B582B000AF78607B689B6808
:1004E000002B04D07B689B68184606F0CFF87B6829
:1004F0004FF000021A607B684FF000025A6007F16B
:100500000807BD4680BD00BF80B483B000AF7860EF
:100510007B681B68002B14BF00230123184607F1DA
:100520000C07BD4680BC704780B483B000AF7860D4
:100530007B681A687B685B689A4214BF00230123BA
:10054000184607F10C07BD4680BC704780B582B0E5
:1005500000AF78607868FFF7D7FF0346002B00D024
:1005600000BE7B689A687B681B6803F1FF334FEA23
:10057000C3031344184607F10807BD4680BD00BFFA
:1005800080B584B000AF78607B681B684FEA0313C6
:10059000184606F083F80346BB604FF00003FB608B
:1005A00012E0FB684FEAC302BB6813447A689168A3
:1005B000FA684FEAC2020A4492E8030083E80300A3
:1005C000FB6803F10103FB60FA687B681B689A42D1
:1005D000E7D37B689B68184606F058F87B68BA68D2
:1005E0009A607B681B684FEA43027B685A6007F198
:1005F0001007BD4680BD00BF80B582B000AF7860F7
:1006000039607868FFF790FF0346002B02D07868C6
:10061000FFF7B6FF7B6899687B681B684FEAC302E7
:100620000A44396803C982E8030003F101027B68C8
:100630001A607868FFF78AFF0346184607F1080733
:10064000BD4680BD80B582B000AF786039607B6800
:100650004FF000021A607B683A685A603A681346A5
:100660004FEA430313444FEAC303184606F016F853
:1006700003461A467B689A6007F10807BD4680BDAD
:1006800080B582B000AF78607B689B68002B04D097
:100690007B689B68184605F0F9FF7B684FF0000205
:1006A0001A607B684FF000025A6007F10807BD46E8
:1006B00080BD00BF80B483B000AF78607B681B68EA
:1006C000002B14BF00230123184607F10C07BD4679
:1006D00080BC704780B483B000AF78607B681A68D4
:1006E0007B685B689A4214BF00230123184607F118
:1006F0000C07BD4680BC704780B483B000AF786003
:1007000039607B681A683B689A4294BF00230123D2
:10071000184607F10C07BD4680BC704780B483B013
:1007200000AF78607B681B68184607F10C07BD4670
:1007300080BC704780B582B000AF78607868FFF702
:10074000B9FF0346002B00D000BE7B689B681846AB
:1007500007F10807BD4680BD80B582B000AF786064
:10076000396078683968FFF7C7FF0346002B00D16E
:1007700000BE7B6899683A6813464FEA4303134406
:100780004FEAC3030B44184607F10807BD4680BD76
:1007900080B582B000AF78607868FFF78BFF0346C2
:1007A000002B00D000BE7B6899687B681B6803F152
:1007B000FF3213464FEA430313444FEAC3030B448B
:1007C000184607F10807BD4680BD00BF80B582B05E
:1007D00000AF78607868FFF7DBFF034603F118038A
:1007E000184607F10807BD4680BD00BF80B584B03C
:1007F00000AF78607B681A6813464FEA43031344DE
:100800004FEA0313184605F049FF0346BB604FF05B
:100810000003FB6022E0FA6813464FEA43031344E7
:100820004FEAC3031A46BB6802EB03017B68986872
:10083000FA6813464FEA430313444FEAC3030344E1
:100840008C469E46BEE80F00ACE80F009EE8030011
:100850008CE80300FB6803F10103FB60FA687B6826
:100860001B689A42D7D37B689B68184605F00EFF39
:100870007B68BA689A607B681B684FEA43027B68B2
:100880005A6007F11007BD4680BD00BF90B583B028
:1008900000AF786039607868FFF71CFF0346002BD3
:1008A00002D07868FFF7A2FF7B689A687B681C68B3
:1008B00023464FEA430323444FEAC3031A443B68E9
:1008C00094469E46BEE80F00ACE80F009EE8030089
:1008D0008CE8030004F101027B681A607868FFF776
:1008E00057FF0346184607F10C07BD4690BD00BFF1
:1008F00080B582B000AF78607B681846FFF7C0FE15
:1009000007F10807BD4680BDB0B590B000AF786173
:100910003961FA60BB607B69FA68DA607B69BA6842
:100920001A617B693A6D5A617B697A6D9A617B695C
:10093000BB63B86B3969FFF785FE7B695B693A4633
:100940001046984707F130033A4692E8030083E8DF
:1009500003007B699B69984704460D4607F118031D
:100960004FF000021A6003F104034FF000021A6016
:1009700003F104034FF000021A6003F104034FF087
:1009800000021A6003F104034FF000021A6003F141
:1009900004034FF000021A6003F104034FF0010357
:1009A0003B7607F11C0307F1300292E8030083E86D
:1009B0000300C7E90A454FF00003FB6309E007F1B4
:1009C0001803B86B1946FFF761FFFB6B03F10103D6
:1009D000FB63FA6B3B699A42F1D3B86BFFF77AFE7F
:1009E0000346002B0FD149F24870C0F200004FF0CF
:1009F0003D0149F6DC02C0F2000249F26473C0F224
:100A0000000305F0A1FA07F14007BD46B0BD00BFE5
:100A100080B582B000AF78607B681846FFF77EFE35
:100A20000346184607F10807BD4680BD90B585B05E
:100A300000AFF86007F1040383E80600FB68DB6899
:100A400007F1040292E8030098470446F868FFF7AC
:100A5000DFFF0346B4FBF3F203FB02F3C3EB040333
:100A6000184607F11407BD4690BD00BF82B080B59F
:100A700084B000AFF86007F1040080E80600FB6175
:100A8000FB68D3F810C007F1040393E8030007F1F3
:100A90001C030CCBE0470346184607F11007BD4680
:100AA000BDE8804002B0704780B58AB002AFF86000
:100AB00007F1040383E80600FB687B61F86807F12F
:100AC000040393E80600FFF7B1FF0346786919466F
:100AD000FFF742FE0346BB617869FFF777FE0346E6
:100AE000FB6116E0BB691B78002B0ED1BA69BB68AD
:100AF00000937B68F86802F1040206CAFFF7B6FFAC
:100B00000346002B01D0BB6909E0BB6903F1180360
:100B1000BB61BA69FB699A42E4D14FF00003184601
:100B200007F12007BD4680BD90B58FB002AF786059
:100B30007868FFF76DFF03464FEA43017B68DA6888
:100B40007B681B697868D0F814E07868D0F818C022
:100B500007F10C00CDF800E0CDF804C0FFF7D4FE9B
:100B60007B681846FFF7E6FD0346BB627B681846C4
:100B7000FFF72CFE0346FB6213E007F10C02BB6A91
:100B8000104603F1040393E8060000F021F8014643
:100B9000BB6AD3E90423C1E90023BB6A03F118034C
:100BA000BB62BA6AFB6A9A42E7D17868FFF7A0FE97
:100BB0007B689C4607F10C040FCCACE80F0094E86E
:100BC00007008CE8070007F13407BD4690BD00BF61
:100BD000B0B58EB000AFF86007F1040383E80600FB
:100BE000FB689B69984704460D4607F110034FF0D8
:100BF00000021A6003F104034FF000021A6003F1CF
:100C000004034FF000021A6003F104034FF00002E6
:100C10001A6003F104034FF000021A6003F10403A9
:100C20004FF000021A6003F1040307F1140307F107
:100C3000040292E8030083E80300C7E90845FB6863
:100C4000FB62F86807F1040393E80600FFF7EEFE85
:100C50000346F86A1946FFF77FFD03463B63F86ACF
:100C6000FFF7B4FD03467B6316E03B6B1B78002B5C
:100C70000ED03B6B9C4607F110040FCCACE80F0084
:100C800094E803008CE803003B6B03F1100312E0CF
:100C90003B6B03F118033B633A6B7B6B9A42E4D1E5
:100CA000F868FFF741FFF86807F1040393E80600CE
:100CB000FFF78EFF0346184607F13807BD46B0BD63
:100CC00080B586B000AFF86007F1040383E8060042
:100CD000F86807F1040393E80600FFF7E5FE034612
:100CE0007B617B69002B03D07B6903F1100307E074
:100CF000F86807F1040393E80600FFF769FF03466D
:100D0000184607F11807BD4680BD00BF80B582B008
:100D100000AF786039607B684FF000021A607B6832
:100D20003A685A603A6813464FEA830313444FEA1D
:100D30008303184605F0B2FC03461A467B689A60A6
:100D400007F10807BD4680BD80B582B000AF78606E
:100D50007B689B68002B04D07B689B68184605F075
:100D600095FC7B684FF000021A607B684FF0000230
:100D70005A6007F10807BD4680BD00BF80B483B04C
:100D800000AF78607B681B68002B14BF0023012331
:100D9000184607F10C07BD4680BC704780B483B08D
:100DA00000AF78607B681A687B685B689A4214BF02
:100DB00000230123184607F10C07BD4680BC70478D
:100DC00080B483B000AF786039607B681A683B6894
:100DD0009A4294BF00230123184607F10C07BD4631
:100DE00080BC704780B483B000AF78607B681B68BC
:100DF000184607F10C07BD4680BC704780B582B02D
:100E000000AF78607868FFF7B9FF0346002B00D089
:100E100000BE7B689B68184607F10807BD4680BD89
:100E200080B582B000AF7860396078683968FFF7C4
:100E3000C7FF0346002B00D100BE7B6899683A6863
:100E400013464FEA830313444FEA83030B441846C7
:100E500007F10807BD4680BD80B582B000AF78605D
:100E60007868FFF78BFF0346002B00D000BE7B683D
:100E700099687B681B6803F1FF3213464FEA8303CE
:100E800013444FEA83030B44184607F10807BD4695
:100E900080BD00BF80B582B000AF78607868FFF792
:100EA000DBFF034603F11403184607F10807BD46AC
:100EB00080BD00BF80B584B000AF78607B681A68E1
:100EC00013464FEA830313444FEAC303184605F061
:100ED000E5FB0346BB604FF00003FB6022E0FA68CD
:100EE00013464FEA830313444FEA83031A46BB6851
:100EF00002EB03017B689868FA6813464FEA8303A4
:100F000013444FEA830303448C469E46BEE80F0019
:100F1000ACE80F00DEF80030CCF80030FB6803F1DD
:100F20000103FB60FA687B681B689A42D7D37B6831
:100F30009B68184605F0AAFB7B68BA689A607B68D4
:100F40001B684FEA43027B685A6007F11007BD46F1
:100F500080BD00BF90B583B000AF7860396078681D
:100F6000FFF71CFF0346002B02D07868FFF7A2FFB3
:100F70007B689A687B681C6823464FEA8303234496
:100F80004FEA83031A443B6894469E46BEE80F002E
:100F9000ACE80F00DEF80030CCF8003004F10102BC
:100FA0007B681A607868FFF757FF0346184607F119
:100FB0000C07BD4690BD00BF80B582B000AF786021
:100FC0007B681846FFF7C0FE07F10807BD4680BDE5
:100FD00080B592B000AF78613961FA60BB607B691F
:100FE000FA68DA607B69BA681A617B693A6D5A619E
:100FF0007B697A6D9A617B693B64386C3969FFF76C
:1010000085FE7B695B693A461046984707F13003D5
:101010003A4692E8030083E803007B699B693A46FD
:101020001046984707F138033A4692E8030083E8F0
:10103000030007F11C034FF000021A6003F10403E0
:101040004FF000021A6003F104034FF000021A602F
:1010500003F104034FF000021A6003F104034FF0A0
:1010600000021A6003F104034FF001033B7707F11C
:10107000200307F1300292E8030083E8030007F140
:10108000280307F1380292E8030083E803004FF0D9
:1010900000037B6409E007F11C03386C1946FFF775
:1010A00059FF7B6C03F101037B647A6C3B699A42C4
:1010B000F1D3386CFFF772FE0346002B0FD149F2D3
:1010C0009070C0F200004FF03D0149F6C402C0F23A
:1010D000000249F2AC73C0F2000304F035FF07F1DF
:1010E0004807BD4680BD00BF80B582B000AF7860C4
:1010F0007B681846FFF776FE0346184607F1080797
:10110000BD4680BD90B585B000AFF86007F104031F
:1011100083E80600FB68DB6807F1040292E803003D
:1011200098470446F868FFF7DFFF0346B4FBF3F285
:1011300003FB02F3C3EB0403184607F11407BD4693
:1011400090BD00BF82B080B584B000AFF86007F1F9
:10115000040080E80600FB61FB68D3F810C007F1CB
:10116000040393E8030007F11C030CCBE04703469C
:10117000184607F11007BD46BDE8804002B0704731
:1011800080B58AB002AFF86007F1040383E8060077
:10119000FB687B61F86807F1040393E80600FFF73A
:1011A000B1FF034678691946FFF73AFE0346BB6173
:1011B0007869FFF76FFE0346FB6116E0BB691B7899
:1011C000002B0ED1BA69BB6800937B68F86802F106
:1011D000040206CAFFF7B6FF0346002B01D0BB6925
:1011E00009E0BB6903F11403BB61BA69FB699A4268
:1011F000E4D14FF00003184607F12007BD4680BD3B
:1012000090B58FB002AF78607868FFF76DFF034646
:101210004FEA43017B68DA687B681B697868D0F81D
:1012200014E07868D0F818C007F10C00CDF800E0A1
:10123000CDF804C0FFF7CCFE7B681846FFF7DEFD53
:101240000346BB627B681846FFF724FE0346FB6239
:1012500015E007F10C02BB6A104603F1040393E8A2
:10126000060000F023F80346BA6A02F10C0292E885
:10127000030083E80300BB6A03F11403BB62BA6A8C
:10128000FB6A9A42E5D17868FFF796FE7B689C4638
:1012900007F10C040FCCACE80F0094E807008CE8D1
:1012A000070007F13407BD4690BD00BF90B591B06F
:1012B00000AF786107F10C0383E806007B699B6946
:1012C0003A461046984707F12C033A4692E8030045
:1012D00083E8030007F118034FF000021A6003F1DE
:1012E00004034FF000021A6003F104034FF0000200
:1012F0001A6003F104034FF000021A6003F10403C3
:101300004FF000021A6003F1040307F11C0307F118
:101310000C0292E8030083E8030007F1240307F1BD
:101320002C0292E8030083E803007B697B63786901
:1013300007F10C0393E80600FFF7E4FE0346786B21
:101340001946FFF76DFD0346BB63786BFFF7A2FDFF
:101350000346FB6315E0BB6B1B78002B0DD0BB6B0A
:101360009C4607F118040FCCACE80F002368CCF8BA
:101370000030BB6B03F10C0312E0BB6B03F11403F1
:10138000BB63BA6BFB6B9A42E5D17869FFF738FF14
:10139000786907F10C0393E80600FFF787FF03461F
:1013A000184607F14407BD4690BD00BF80B586B022
:1013B00000AFF86007F1040383E80600F86807F15E
:1013C000040393E80600FFF7DBFE03467B617B69BD
:1013D000002B03D07B6903F10C0307E0F86807F1E9
:1013E000040393E80600FFF761FF0346184607F180
:1013F0001807BD4680BD00BF80B483B000AF7860E1
:1014000039607B684FF000021A607B684FF0000281
:101410005A607B683A689A6007F10C07BD4680BC49
:10142000704700BF80B584B000AF78607B681B68F0
:10143000BB60BB68FB6007E0BB685B68FB60B868CB
:1014400005F024F9FB68BB60BB68002BF4D17B6816
:101450004FF000021A607B684FF000025A6007F1FB
:101460001007BD4680BD00BF80B483B000AF786078
:101470007B681B68002B14BF00230123184607F16B
:101480000C07BD4680BC704780B584B000AF786063
:101490004FF0100005F002F90346FB60FB684FF0C7
:1014A00000021A60FB684FF000025A60FB687A681D
:1014B00003F1080392E8030083E80300FB68184681
:1014C00007F11007BD4680BD80B586B000AFF8605B
:1014D000B9607A607868FFF7D7FF03467B61F868E8
:1014E000FFF7C2FF0346002B0ED0FB687A691A6033
:1014F000FB687A695A607B694FF000021A607B6969
:101500004FF000025A6025E0BB68002B04D0FB6856
:101510005A68BB689A420FD1FB685A687B691A60A7
:101520007B694FF000025A60FB685B687A695A6019
:10153000FB687A695A600DE0BB685A687B695A603B
:101540007B69BA681A60BB685B687A691A60BB68B5
:101550007A695A607B69002B03D07B6903F1080329
:1015600001E04FF00003184607F11807BD4680BDA3
:1015700080B584B000AF786039607B685B68FB60E1
:101580007B689B68002B14D07B681B68FB6002E0C3
:10159000FB685B68FB60FB68002B0AD07B689B687C
:1015A000FA6802F108023868114698470346002B92
:1015B000EED17868F9683A68FFF786FF07F11007FF
:1015C000BD4680BD80B582B000AF786039607B6871
:1015D0001A683B689A420DD17B685A683B689A4208
:1015E00008D17B684FF000021A607B684FF0000260
:1015F0005A6027E07B681A683B689A4209D13B68C9
:101600005A687B681A607B681B684FF000021A609A
:1016100018E07B685A683B689A4209D13B681A68AF
:101620007B685A607B685B684FF000025A6009E093
:101630003B681B683A6852685A603B685B683A6866
:1016400012681A60386805F021F807F10807BD46EE
:1016500080BD00BF90B585B000AF044679607B685F
:101660001A6807F1080302F1080292E8030083E810
:1016700003007B681B6878681946FFF7A3FF2346C1
:1016800007F1080292E8030083E80300204607F10F
:101690001407BD4690BD00BF90B583B000AF786021
:1016A00039607B6840F6C820C2F2000093E806006B
:1016B000FFF706FB04463B6840F6C820C2F2000074
:1016C00093E80600FFF7FCFA03469C4294BF002310
:1016D0000123184607F10C07BD4690BD80B586B0C2
:1016E00000AF07F1080C8CE80300394681E80C00D4
:1016F000FA687B68C3EB0203002BB8BF5B423B6117
:10170000BA683B68C3EB0203002BB8BF5B427B6146
:101710003B693A6902FB03F27B69796901FB03F3D8
:101720001344184604F0F0F802460B4610461946DA
:1017300007F0C4FE02460B461046194607F118078B
:10174000BD4680BD90B585B000AF044607F10403E7
:1017500018464FF000014FF00C0205F09DFB2346A8
:1017600007F1040207CA83E80700204607F11407BF
:10177000BD4690BDB0B596B002AF0446F96007F122
:10178000040181E80C0007F1380318464FF00C0102
:10179000FEF786FEF86807F1040393E8060002F0FE
:1017A000EFF90346002B09D0F86807F1600393E8CE
:1017B000060002F0E5F90346002B00D100BE43F617
:1017C0002543C0F20003009343F62543C0F2000313
:1017D000019340F62860C2F200004FF0C80143F6C2
:1017E000BD32C0F2000243F6E933C0F20003FFF756
:1017F000EFFB43F62543C0F20003009343F6414359
:10180000C0F20003019340F60C30C2F200004FF02A
:10181000C80143F6BD32C0F2000243F6E933C0F21C
:101820000003FFF771F843F62543C0F2000300936D
:1018300043F64143C0F20003019340F6C820C2F2D0
:1018400000004FF0C80143F6BD32C0F2000243F67B
:10185000E933C0F20003FFF757F840F60C30C2F24C
:10186000000007F1040393E80600FFF729FA014698
:101870004FF000024FF00003C1E9002340F6C820FA
:10188000C2F2000007F1040393E80600FFF718FA1C
:10189000054607F1040393E8030007F1600C9CE898
:1018A0000C00FFF71BFF02460B46C5E9002340F67C
:1018B000A820C2F2000041F29961C0F20001FFF7D6
:1018C0009BFD07F1040340F6A820C2F20000194670
:1018D000FFF74EFE3FE107F13003184640F6A8211E
:1018E000C2F20001FFF7B6FE07F1300393E80300F0
:1018F00007F1600C9CE80C0002F076F90346002B1F
:1019000026D018E007F1380207F1300310461946D7
:10191000FEF772FE40F62860C2F2000007F13003C5
:1019200093E80600FFF742FD024607F1300392E814
:10193000030083E8030007F1300393E8030007F195
:1019400004030CCB02F050F90346002BDAD00CE173
:101950003B6B03F101027B6B3A617B613A6B7B6B02
:1019600003F10103BA61FB613B6B03F1FF327B6B57
:101970003A627B623A6B7B6B03F1FF33BA62FB62C4
:101980004FF000037B64E2E07B6C4FEAC30307F196
:1019900050021344F868A3F1400393E8060002F0F4
:1019A000EFF80346002B00F0CB807B6C4FEAC303BB
:1019B00007F1500C6344F868A3F1400393E8060074
:1019C00002F0C4F80346002B40F0BC8040F60C3017
:1019D000C2F2000007F1300393E80600FFF770F948
:1019E0000346D3E90023104619464FF000024FF09A
:1019F0007E5303F5E00303F03BFE02460B46C7E9C6
:101A000012237B6C4FEAC30307F15002134440F6E4
:101A10000C30C2F20000A3F1400393E80600FFF788
:101A200043F80346002B0CD17B6C4FEAC30207F14D
:101A30001003134440F6A820C2F200001946FFF735
:101A400097FD7B6C4FEAC30307F1500C634440F6EB
:101A50000C30C2F20000A3F1400393E80600FFF748
:101A60002FF90346D3E900234FF000010D4610463D
:101A70001946D7E9122304F03DFA0346002B02D0A1
:101A80004FF001031D46EBB2002B5CD07B6C4FEA9C
:101A9000C30307F15002134440F62860C2F200006D
:101AA000A3F1400393E80600FFF780FC034607F12B
:101AB000300292E8030083E803007B6C4FEAC30323
:101AC00007F1500C634440F60C30C2F20000A3F161
:101AD000400393E80600FFF7F3F80146D7E9122325
:101AE000C1E900237B6C4FEAC30307F150021344A2
:101AF00040F6C820C2F20000A3F1400393E80600BC
:101B0000FFF7DEF805467B6C4FEAC30307F1500C84
:101B10006344A3F1400393E8030007F1600C9CE8E1
:101B20000C00FFF7DBFD02460B4610461946D7E9CD
:101B3000122303F09DFD02460B46C5E9002302E097
:101B400000BF00E000BF7B6C03F101037B647B6C92
:101B5000032B7FF619AF40F6A820C2F20000FFF772
:101B600083FC0346002B3FF4B6AE40F62860C2F279
:101B70000000FFF721FA40F60C30C2F20000FEF739
:101B8000B7FE40F6C820C2F20000FEF7B1FE40F6F4
:101B9000A820C2F20000FFF745FC234607F13802F7
:101BA00007CA83E80700204607F15007BD46B0BDCD
:101BB000684620F007018D4689B500AF40F6E42065
:101BC000C2F2000002F09AF9BD46BDE889408546A0
:101BD000704700BF80B582B000AF78607B681B782B
:101BE000194640F62832C2F200020B464FEA430380
:101BF0000B441A447B68114603F101024FF00303C2
:101C0000084611461A4605F023F807F10807BD46B5
:101C100080BD00BF80B582B000AF786007E07B6810
:101C20007A6802F104027A601846FFF7D3FF7B68F6
:101C30001B78002BF3D107F10807BD4680BD00BF1C
:101C400080B584B000AF0346FB71F97940F62832C5
:101C5000C2F200020B464FEA43030B44134407F160
:101C60000C011A464FF00303084611461A4604F0C9
:101C7000EFFF4FF000033A7B62F307037A7B62F3D6
:101C80000F23BA7B62F31743184607F11007BD46CE
:101C900080BD00BF80B58EB000AF78613961FA6059
:101CA0004FF00003BB6245E04FF00003FB6238E0F9
:101CB0007869B96AFA6A01F0A9FD03463B6307F146
:101CC00020031846B96AFA6A01F0B0FE386907F1D4
:101CD000200393E8060001F007FF034687F837303A
:101CE00097F837301846FFF7ABFF3870C0F307237B
:101CF0007B70C0F30743BB7007F11C033A461268C0
:101D00001146198003F102034FEA12421A707869F2
:101D1000396BFA68FB6901F045FCFB6A03F10103CA
:101D2000FB623B695A68FB6A9A42C1D8BB6A03F1FD
:101D30000103BB623B691A68BB6A9A42B4D807F1D7
:101D40003807BD4680BD00BF90B589B000AFF861CF
:101D50000B46FB76FC6907F11002FB7E104640F64D
:101D6000F021C2F200011A4601F070FE04F10403F2
:101D700007F1100292E8030083E80300FC69FB7E90
:101D80001846FFF75DFF6073C0F30723A373C0F32A
:101D90000743E373FC694FF04400FFF751FF2074E1
:101DA000C0F307236374C0F30743A374FC693B4685
:101DB0001846FFF7C7FC04F114033A4607CA83E844
:101DC0000700FB694FF000021A73FB69FA7E1A7074
:101DD000FB694FF04402DA7407F12407BD4690BD59
:101DE00080B584B000AF7860786801F0CBF9034625
:101DF000FB7340F60030C2F2000001F0C3F9034665
:101E0000FA7B9A4244D17B68184601F063FA034694
:101E1000002B1BD040F64463C2F2000340F6F020D2
:101E2000C2F2000003F1040393E8060001F05CFE37
:101E30000346552B0AD140F64463C2F2000303F176
:101E4000040393E8030000F0EBF821E07B681846F8
:101E500001F00EFA0346002B1AD040F64463C2F29A
:101E6000000340F6F020C2F2000003F1040393E8FF
:101E7000060001F039FE0346432B09D140F64463C6
:101E8000C2F2000303F1040393E8030000F052F8E8
:101E900007F11007BD4680BD80B584B000AF034692
:101EA000FB7140F60033C2F2000307F1080293E829
:101EB000030082E80300FB793B7207F10803184630
:101EC00001F0B0F907F11007BD4680BD80B584B0C0
:101ED00000AF3B4683E8030040F6F020C2F200006A
:101EE0003B4693E806004FF0300301F015FE3A68D8
:101EF0007B6840F66860C2F2000011461A4601F0A5
:101F000085FC0346FB604FF000033B724FF000037B
:101F10007B724FF00003BB7240F66860C2F20000B3
:101F2000F9684FF00002BB6801F03CFB07F11007B5
:101F3000BD4680BD80B58AB000AF3B4683E8030054
:101F400040F6F020C2F200003B4693E806004FF056
:101F5000300301F0E1FD3A687B6840F66860C2F248
:101F6000000011461A4601F051FC0346BB614FF0D8
:101F700000033B754FF000037B754FF00003BB750A
:101F800040F66860C2F20000B9694FF000027B6958
:101F900001F008FB4FF00003FB613AE004F0ECFFB6
:101FA00003461A4640F6F023C2F200031B68B2FB58
:101FB000F3F103FB01F3C3EB02033B6204F0DCFF2C
:101FC00003461A4640F6F023C2F200035B68B2FBF8
:101FD000F3F103FB01F3C3EB02037B623B6AFB609B
:101FE0007B6A3B6140F6F020C2F2000007F10C036F
:101FF00093E8060001F078FD0346442B05D107F174
:102000000C0393E80300FFF761FFFB6903F1010391
:10201000FB61FB69042BC1DD07F12807BD4680BDCC
:1020200080B584B000AF3B4683E8030040F6F02063
:10203000C2F200003B4693E806004FF0300301F087
:102040006BFD3A687B6840F66860C2F2000011469A
:102050001A4601F0DBFB0346FB604FF000033B72C6
:102060004FF000037B724FF00003BB7240F66860D4
:10207000C2F20000F9684FF00002BB6801F092FA6A
:1020800040F6EC23C2F200034FF005021A6007F19C
:102090001007BD4680BD00BF90B589B002AFF860A3
:1020A00007F1040383E80600FB6803F1040393E8E7
:1020B000030007F104030CCB01F096FD0346002B4F
:1020C00040F0EC80F968FA686B4602F11002126881
:1020D0001046188003F102034FEA12421A7040F6CC
:1020E0006860C2F2000001F1040393E806004FF0BB
:1020F000000301F0B1FB40F6F020C2F2000007F14E
:10210000040393E8060001F0EFFC0346FC68184660
:10211000FFF796FD2074C0F307236374C0F30743F1
:10212000A374FB68694603F10D024FF003030846F0
:1021300011461A4604F08CFD40F66860C2F20000B9
:1021400007F1040393E806004FF0000301F084FB5D
:1021500040F6F020C2F2000007F1040393E8060005
:1021600001F0C2FC0346BB75FB681B78502B67D19E
:10217000FB68DB7CFB75FA68FB7D40F6F020C2F261
:10218000000002F1040206CA01F0C6FCFB7DA3F1C7
:102190004303122B47D801A252F823F01922000062
:1021A000E92100002722000027220000272200004A
:1021B00027220000272200002722000027220000FB
:1021C00027220000272200002722000027220000EB
:1021D000F92100002722000027220000272200000A
:1021E0002722000009220000FB6803F1040393E8A2
:1021F0000300FFF76BFE16E0FB6803F1040393E8AE
:102200000300FFF763FE0EE0FB6803F1040393E8AD
:102210000300FFF705FF06E0FB6803F1040393E802
:102220000300FFF787FE40F6F020C2F2000007F13E
:10223000040393E806004FF0500301F06DFC20E02A
:10224000FB6840F6F020C2F2000003F1040393E8BB
:10225000060001F049FC034640F6F020C2F20000FF
:1022600007F1040206CA01F057FCFB68DB7CFA6840
:1022700040F6F020C2F2000002F1040206CA01F0AA
:102280004BFCFB68BA7DDA74FB6803F1040307F1C9
:10229000040292E8030083E8030000E000BF07F1B6
:1022A0001C07BD4690BD00BF80B588B002AFF86086
:1022B000B9607A603B6040F66463C2F200037A68FA
:1022C0001A6040F68423C2F200033A681A6040F6AE
:1022D000B820C2F20000F96801F0DAFA40F6F02006
:1022E000C2F200004FF0000101F0D2FAB868FFF727
:1022F00091FC40F6B823C2F200031A6840F6B823F6
:10230000C2F200035B687968009140F66860C2F22F
:10231000000011461A464FF0020301F049F840F65A
:102320008423C2F200031B6840F6E420C2F20000DE
:10233000194601F095FD41F6E150C0F2000000F0B1
:102340005FFF4FF00100FFF7A7FD40F60030C2F23B
:1023500000004FF000014FF0080204F09DFD40F630
:102360000030C2F200004FF0010100F0FDFE40F627
:10237000EC23C2F200034FF000021A6040F608336B
:10238000C2F200034FF006021A7040F6B423C2F204
:1023900000034FF007021A7040F60833C2F2000340
:1023A0001A7840F6B423C2F200031B789A420CBF9D
:1023B000002301237B6140F60833C2F200031A7840
:1023C00040F6B423C2F200031A7040F60833C2F29A
:1023D00000031B78072B36D801A252F823F000BF68
:1023E0000124000009240000112400001924000029
:1023F0002124000029240000312400003924000099
:10240000786900F023F820E0786900F07FF81CE09C
:10241000786900F0C1F818E0786900F0FFF814E07E
:10242000786900F0FBF910E0786900F023FA0CE01D
:10243000786900F063FA08E0786900F0B9FA07F10A
:102440001807BD4680BD00BEA6E7A5E780B586B0EB
:1024500002AF78607B68002B03D04FF00200FFF7DB
:102460001BFD40F66863C2F20003D3F800C049F6D2
:10247000C002C0F2000207F10C0312681146198075
:1024800003F102034FEA12421A706B4607F10C0285
:1024900012681146198003F102034FEA12421A70C2
:1024A00040F66860C2F200004FF0000162464FF053
:1024B000000301F0C9F840F66860C2F200004FF076
:1024C000000144F24022C0F20F0201F0D9F840F6B8
:1024D000E420C2F200004FF0030101F02FFD03469B
:1024E000002B07D040F60833C2F200034FF0010280
:1024F0001A7006E040F60833C2F200034FF0000203
:102500001A7007F11007BD4680BD00BF90B587B0B7
:1025100000AF78614FF00100FFF7BEFC40F6F020FD
:10252000C2F2000001F046FA40F6F024C2F20004C4
:102530003B46184640F6B821C2F2000101F05EFAAF
:10254000A4463B460FCB8CE80F0040F66860C2F211
:10255000000040F6F021C2F200014FF00002FFF748
:1025600099FB40F64460C2F200004FF05001FFF7C3
:10257000EBFB40F68820C2F200004FF04701FFF766
:10258000E3FB40F60833C2F200034FF002021A7078
:1025900007F11C07BD4690BD80B584B002AF7860DE
:1025A0007B68002B19D040F66863C2F200031A68FA
:1025B00044F24023C0F20F03009348F28043C0F27C
:1025C0001E03019340F66860C2F200004FF0000164
:1025D0004FF0010301F0F8F81BE040F6E420C2F2EE
:1025E000000001F0C5FC0346002B0BD040F6083379
:1025F000C2F200034FF003021A704FF00000FFF721
:102600004BFC06E040F60833C2F200034FF0020232
:102610001A7007F10807BD4680BD00BF90B58DB0A8
:1026200002AF786100F004FD0346002B00F0B58096
:1026300040F20C03C2F200031B684FEA43033B6203
:1026400040F6E420C2F2000001F092FC034687F855
:10265000273097F82730002B06D040F64463C2F2AB
:10266000000397F827201A7340F64463C2F2000370
:1026700007F1180203F1040393E8030082E8030062
:1026800040F64463C2F200031B7B03F1FF33032BCC
:102690001DD801A252F823F0A9260000B32600009D
:1026A000BD260000C7260000FB6903F10103FB61A2
:1026B0000DE0FB6903F1FF33FB6108E0BB6903F147
:1026C0000103BB6103E0BB6903F1FF33BB6140F66B
:1026D000F020C2F2000007F1180393E8060001F0B1
:1026E00035FA0346002B38D140F6F020C2F2000044
:1026F00007F1180393E8060001F042FA0346002BA5
:102700002BD04548FDF7E6FE40F68824C2F20004CF
:102710003A4640F68823C2F20003EC4607F118015E
:1027200003C98CE80300104640F6F021C2F2000114
:1027300003F104030CCBFFF71DF804F114033A4630
:1027400007CA83E8070040F64460C2F2000007F1C0
:10275000180393E80600FFF79FFC2F48FDF7D4FE0F
:102760000346002B40F6EC23C2F200031B68002B4B
:1027700007D040F6EC23C2F200031B6803F1FF32DE
:1027800001E04FF0000240F6EC23C2F200031A60B1
:10279000386A4FF0000100F057FC40F21003C2F21B
:1027A00000031B6840F66860C2F200004FF00001B1
:1027B0001A4600F065FF40F6E420C2F200004FF038
:1027C000090101F0BBFB0346002B07D040F608339C
:1027D000C2F200034FF007021A7019E040F6E4203D
:1027E000C2F200004FF0030101F0A8FB0346002BEA
:1027F00007D040F60833C2F200034FF000021A700F
:1028000006E040F60833C2F200034FF003021A70EC
:1028100007F12C07BD4690BD9C0A002080B584B00E
:1028200002AF78604FF00100FFF736FB40F66863B7
:10283000C2F200031A6844F24023C0F20F0300936F
:102840004CF2C063C0F22D03019340F66860C2F2FF
:1028500000004FF000014FF0000300F0B5FF40F61C
:102860000833C2F200034FF006021A7007F108079E
:10287000BD4680BD80B586B002AF78604FF00100E4
:10288000FFF70AFB40F66863C2F20003D3F800C00A
:102890004FF0FF333B734FF000037B734FF00003A7
:1028A000BB736B4607F10C0212681146198003F1E5
:1028B00002034FEA12421A7040F66860C2F200004A
:1028C0004FF0000162464FF0000300F0BDFE40F6FD
:1028D0006860C2F200004FF000014CF2C062C0F22A
:1028E0002D0200F0CDFE40F60833C2F200034FF097
:1028F00006021A7007F11007BD4680BD80B582B090
:1029000000AF78607B68002B15D040F6F020C2F253
:10291000000040F21401C2F2000100F0B9FF40F6DD
:102920006860C2F2000040F6F021C2F200014FF0F0
:102930000002FFF7AFF940F6E420C2F200004FF0CA
:10294000030101F0FBFA0346002B07D040F60833E1
:10295000C2F200034FF000021A7019E040F6E420C2
:10296000C2F200004FF0020101F0E8FA0346002B2A
:1029700007D040F60833C2F200034FF007021A7086
:1029800006E040F60833C2F200034FF006021A7068
:1029900040F66860C2F200004FF0000144F24022AD
:1029A000C0F20F0200F06CFE07F10807BD4680BDC3
:1029B00080B586B002AF78604FF00100FFF76CFA87
:1029C00040F66863C2F20003D3F800C04FF0000382
:1029D0003B734FF000037B734FF00003BB736B46F8
:1029E00007F10C0212681146198003F102034FEA45
:1029F00012421A7040F66860C2F200004FF0000107
:102A000062464FF0000300F01FFE40F66860C2F21D
:102A100000004FF000014FF0000200F031FE40F6E0
:102A2000E420C2F2000001F053FA40F66860C2F2FE
:102A3000000000F053FD40F6F020C2F2000000F06C
:102A4000B9FF40F6B820C2F2000000F0B3FF40F634
:102A50000833C2F200034FF007021A7007F11007A3
:102A6000BD4680BD80B500AF01F0F8F84FF0000022
:102A70004DF60001C0F2B85101F016F94FF0010017
:102A80004DF60001C0F2B85101F00EF940F24803D2
:102A9000C2F200031A6840F24C03C2F200031B6842
:102AA00040F25000C2F2000040F28401C2F2000184
:102AB000FFF7FAFB4FF00003184680BD80B500AF6A
:102AC00040F67C60C2F200004FF000014FF01802A7
:102AD00004F0E2F980BD00BF80B584B000AF78603B
:102AE000396040F67C63C2F200035A6940F67C63A9
:102AF000C2F200031344FB60F86879683A6804F096
:102B0000A7F840F67C63C2F200035A693B681A4496
:102B100040F67C63C2F200035A6140F67C63C2F265
:102B200000035B69112B94BF00230123184607F1B2
:102B30001007BD4680BD00BF80B483B000AF786091
:102B40007B681A7C40F69463C2F200035B789A4279
:102B50000ED07B685A7C40F69463C2F200035B7827
:102B60009A4203D07B685B7CFF2B01D17B6801E03C
:102B70004FF00003184607F10C07BD4680BC7047B4
:102B800080B586B000AF786007F1080340F6147096
:102B9000C2F2000019464FF0080201F087FC03461C
:102BA0003B6107F1080318463969FFF795FF0346B3
:102BB000002B1AD040F67C60C2F20000FFF7BCFF89
:102BC00003467B617B69002B0DD040F69463C2F213
:102BD00000035B68002B06D040F69463C2F200034A
:102BE0005B6878699847FFF769FF07F11807BD46EA
:102BF00080BD00BF80B582B000AF78607B6840F6D2
:102C00001470C2F2000019464FF0120201F0DCFB12
:102C100007F10807BD4680BD80B582B000AF0B4606
:102C20003A600246FA71BB7140F69463C2F2000347
:102C3000FA791A7040F69463C2F20003BA795A70B6
:102C400040F69463C2F200033A685A60FFF736FF19
:102C500040F61470C2F200004FF416514FF0030218
:102C600001F0B0FA40F61470C2F2000042F6813171
:102C7000C0F200014FF0800201F0D6FD40F6147062
:102C8000C2F200004FF0010101F07EFC07F10807DD
:102C9000BD4680BD80B582B000AF786040F69463D9
:102CA000C2F200031B78002B00D000BE78684FF002
:102CB000FF0100F005F807F10807BD4680BD00BF21
:102CC00080B588B000AF78600B46FB707B6807F179
:102CD0000C011A464FF01003084611461A4603F03D
:102CE000B7FFFB787B7740F69463C2F200035B7812
:102CF0003B7707F10C031846FFF77CFF07F120072D
:102D0000BD4680BD80B483B000AF0346FB804EF269
:102D10000013CEF20003B7F906204FEA5212F988E9
:102D200001F01F014FF0010000FA01F143F82210F9
:102D300007F10C07BD4680BC704700BF80B483B06C
:102D400000AF0346FB804EF20013CEF20003B7F94A
:102D500006204FEA5212F98801F01F014FF00100DE
:102D600000FA01F102F1200243F8221007F10C07EA
:102D7000BD4680BC704700BF80B483B000AF03463F
:102D8000FB804EF20013CEF20003B7F906204FEAA3
:102D90005212F98801F01F014FF0010000FA01F111
:102DA00002F1600243F8221007F10C07BD4680BC17
:102DB000704700BF80B582B000AF0346FB714FF093
:102DC0001400FFF7BBFF42F20003CEF2040342F20D
:102DD0000002CEF20402126B22F040021A6345F2A6
:102DE0000003C4F200034FF000025A6540F20003F2
:102DF000C4F20A234FF00002C3F8802140F200031E
:102E0000C4F20A234FF00002C3F8882140F2000305
:102E1000C4F20A23FA79C3F8842145F20003C4F20C
:102E200000034FF001021A614FF01400FFF7A4FFF6
:102E300007F10807BD4680BD80B400AF40F2000333
:102E4000C4F20A234FF00102C3F88021BD4680BCC2
:102E5000704700BF80B483B000AF786045F20003D4
:102E6000C4F200037A685A6007F10C07BD4680BCC3
:102E7000704700BF80B500AF40F20003C4F20A23E0
:102E80004FF00102C3F888214FF01400FFF73AFF1A
:102E900080BD00BF80B500AF40F20003C4F20A233A
:102EA0004FF00002C3F888214FF01400FFF746FFEF
:102EB00080BD00BF80B582B000AF0346FB714FF00C
:102EC0001500FFF73BFF42F20003CEF2040342F28B
:102ED0000002CEF20402126B22F040021A6345F2A5
:102EE0000003C4F200034FF000025A6540F20003F1
:102EF000C4F20A234FF00002C3F8802440F200031A
:102F0000C4F20A234FF00002C3F8882440F2000301
:102F1000C4F20A23FA79C3F8842445F20003C4F208
:102F200000034FF001029A624FF01500FFF724FFF3
:102F300007F10807BD4680BD80B400AF40F2000332
:102F4000C4F20A234FF00102C3F88024BD4680BCBE
:102F5000704700BF80B400AF45F20003C4F2000325
:102F60009B691846BD4680BC704700BF80B483B0E3
:102F700000AF786045F20003C4F200037A68DA61BA
:102F800007F10C07BD4680BC704700BF80B500AF9D
:102F900040F20003C4F20A234FF00102C3F8882470
:102FA0004FF01500FFF7AEFE80BD00BF80B500AF4B
:102FB00040F20003C4F20A234FF00002C3F8882451
:102FC0004FF01500FFF7BAFE80BD00BF0000000003
:102FD000B0B582B000AF7860786802F085FC044636
:102FE0000D464FF0010000F07BFE0346184602F04C
:102FF0007BFC02460B46104619460BA3D3E900237F
:1030000002F012FE02460B462046294602F0E2FC80
:1030100002460B461046194602F076FF0346184654
:1030200007F10807BD46B0BD0000000080842E41B6
:1030300080B500AFFFF78EFF0346002B14BF0023BF
:103040000123184680BD00BF80B582B000AF786014
:1030500039607B68002B15D040F69C63C2F20003F8
:103060003A681A604FF00100FFF724FFFFF78EFF68
:103070007868FFF7ADFF03461846FFF777FFFFF7C5
:103080005BFF00E000BF07F10807BD4680BD00BF41
:1030900080B582B000AF78607B68002B1DD04FF008
:1030A0000100FFF787FEFFF7E5FE7868FFF790FF66
:1030B00003461846FFF7CEFE40F6A063C2F20003B7
:1030C0004FF000021A60FFF7B7FE40F6A063C2F2AD
:1030D00000031B68002BF8D000E000BF07F10807D1
:1030E000BD4680BD80B500AF40F6A063C2F20003CC
:1030F0004FF001021A60FFF7CDFE80BD80B500AF32
:10310000FFF754FF40F69C63C2F200031B68002BDC
:1031100005D040F69C63C2F200031B68984740F656
:103120009C63C2F200034FF000021A60FFF73EFFFB
:1031300080BD00BF80B584B000AF78607B6807F1C8
:103140000802104619464FF0080203F081FD40F6D0
:10315000A463C2F200031B6807F1080210469847F7
:1031600007F11007BD4680BD80B483B000AF786022
:103170000B46FB707B68FA789A7107F10C07BD4625
:1031800080BC704780B483B000AF78607B689B7967
:10319000184607F10C07BD4680BC704780B584B067
:1031A00000AF03463960FB7140F6A463C2F200032E
:1031B0003A681A6040F6A860C2F200004FF00001C1
:1031C0004FF0080203F068FEFB7940F6A860C2F2F7
:1031D00000001946FFF7C8FFFB79002B0CBF002346
:1031E0000123FB73FA7BFB791046194643F2351233
:1031F000C0F20002FFF710FD07F11007BD4680BDC9
:1032000080B582B000AF78607B68002B00D100BE33
:103210004FF000007968FFF7C1FF07F10807BD46CE
:1032200080BD00BF80B586B000AF786040F6A8636F
:10323000C2F200039B79002B00D000BE07F1080307
:1032400018464FF000014FF0100203F025FE07F181
:103250000803184679684FF0080203F0F9FC07F1FB
:1032600008031846FFF716FD07F11807BD4680BD95
:1032700080B483B000AF78607B681A8849F63F431A
:103280009A4202D84FF000031EE07B681B881A4662
:103290007B6803F102031B88C3EB020248F6B80304
:1032A0009A420FDD7B681B881A467B6803F1040392
:1032B0001B88C3EB020248F6B8039A4202DD4FF0C6
:1032C000010301E04FF00003184607F10C07BD466B
:1032D00080BC704790B585B000AF786040F2A00028
:1032E000C2F2000000F042F803461C46786800F085
:1032F0003DF80346C3EB0403002BB8BF5B427B8160
:103300007A8942F6E0639A4202D94FF0000328E03E
:103310004FF00003FB601FE0FA6840F2A003C2F226
:10332000000333F812301A46FB684FEA43017B680A
:103330000B441B88C3EB0203002BB8BF5B427B81AD
:103340007A8942F228339A4202D94FF0000308E00A
:10335000FB6803F10103FB60FB68022BDCDD4FF02F
:103360000103184607F11407BD4690BD80B485B02F
:1033700000AF78604FF00003BB604FF00003FB60CC
:103380000CE0FB684FEA43027B6813441B88BA6871
:103390001344BB60FB6803F10103FB60FB68022B75
:1033A000EFDDBB68184607F11407BD4680BC7047C7
:1033B00090B587B000AFF860B9607A603B604FF0BD
:1033C000000000F08DFC014649F68173C1F25E6396
:1033D000A3FB01234FEA935346F60042C0F2DC22DE
:1033E00002FB03F3C3EB0103002B00D000BE4FF040
:1033F000000000F075FC024649F68173C1F25E637D
:10340000A3FB02134FEA93539BB203F1FF337B827A
:10341000BA6A7B8A40F6B060C2F2000011461A46D2
:103420004FF0010301F080FABB687A6802FB03F2F7
:10343000FB681A60FB68BA685A60FB687A689A6031
:10344000FB683A68DA604FF000037B613B684FEA43
:103450008303184603F022F903461A46FB681A61F3
:103460002CE0FB681A697B694FEA830302EB0304D3
:10347000FB681A6813464FEA430313444FEA830379
:10348000184603F00BF903462360FB681A697B6951
:103490004FEA830313441968FB681A6813464FEA1E
:1034A000430313444FEA830308464FF000011A46D2
:1034B00003F0F2FC7B6903F101037B617A693B68ED
:1034C0009A42CED3F8684FF000014FF0000200F0AE
:1034D000D7F807F11C07BD4690BD00BF80B584B08A
:1034E00000AF78604FF00003FB600DE07B681A6965
:1034F000FB684FEA830313441B68184603F0C6F8C1
:10350000FB6803F10103FB607B68DA68FB689A42A1
:10351000ECD87B681B69184603F0B8F807F1100770
:10352000BD4680BD80B483B000AF786039607B68F1
:10353000DA683B689A4294BF00230123184607F1DA
:103540000C07BD4680BC704780B483B000AF786084
:1035500039607B681A683B689A4234BF00230123B4
:10356000184607F10C07BD4680BC704780B485B093
:1035700000AFF860B9607A60FB681A697B684FEA4F
:10358000830313441968BA6813464FEA430313448C
:103590004FEA83030B44184607F11407BD4680BC6D
:1035A000704700BF80B586B000AFF860B9607A6040
:1035B0003B60F8687968FFF7B5FF0346002B00D140
:1035C00000BEF868B968FFF7BFFF0346002B00D1C3
:1035D00000BEF868B9687A68FFF7C8FF03467B61E8
:1035E000BB784FEA830240F2A803C2F200031344FF
:1035F000786919464FF0040203F02AFB7B6903F156
:1036000004023B784FEA830140F2A803C2F20003B0
:103610000B44104619464FF0040203F019FB7B6976
:1036200003F108027B784FEA830140F2A803C2F25B
:1036300000030B44104619464FF0040203F008FB48
:1036400007F11807BD4680BD80B586B000AFF860B1
:10365000B9607A603B60BB687B6109E0F8687969B2
:103660003A683B6AFFF79EFF7B6903F101037B61C8
:103670007A697B689A42F1D307F11807BD4680BD8D
:1036800080B584B000AFF860B9607A60F868B96856
:10369000FFF748FF0346002B00D100BEFB681A6904
:1036A000BB684FEA830313441968FB681A68134622
:1036B0004FEA430313444FEA830340F6B060C2F27B
:1036C00000001A4601F07EFA7868FFF7E1FC07F186
:1036D0001007BD4680BD00BF80B586B000AFF86062
:1036E000B9607A603B60F8683968FFF71BFF0346F2
:1036F000002B00D100BEF868B968FFF725FF03462C
:10370000002B00D100BE7A68BB689A4253D800BE35
:1037100051E003F031FC0346194648F28103C8F238
:103720008003A3FB01234FEAD31213464FEA03237E
:10373000C2EB0303C3EB0102D3B203F10103DBB21B
:103740003B7503F019FC0346194648F28103C8F2A1
:103750008003A3FB01234FEAD31213464FEA03234E
:10376000C2EB0303C3EB0102D3B203F10103DBB2EB
:103770007B7503F001FC0346194648F28103C8F249
:103780008003A3FB01234FEAD31213464FEA03231E
:10379000C2EB0303C3EB0102D3B203F10103DBB2BB
:1037A000BB75F868B9683A687B69FFF7FBFEBB68D0
:1037B00003F10103BB60BA687B689A42A9D307F1A1
:1037C0001807BD4680BD00BF80B584B000AFF8606B
:1037D000B9607A603B60F8694FF00001FFF734FC94
:1037E0000AE0F868B9687A683B68FFF775FFF8681F
:1037F0003968BA69FFF744FFFFF71AFC0346002B4C
:10380000EFD007F11007BD4680BD00BF80B485B082
:1038100000AFF860B9607A60BB6803F00103002B69
:1038200007D1FB689B68BA6802FB03F27B6813440C
:103830000BE0BB6803F10103FA68926802FB03F234
:103840007B68C3EB020303F1FF33184607F114074B
:10385000BD4680BC704700BF80B584B000AFF86043
:1038600007F1040080E806003B607A68BB68F868EE
:1038700011461A46FFF7CAFF0346F86819463A6828
:10388000BB69FFF78FFE07F11007BD4680BD00BF83
:1038900080B588B000AF786039607B684FF0000277
:1038A0001A607B684FF000025A607B684FF000029C
:1038B0009A603B68002B04D17B684FF00002DA600D
:1038C00073E03B68BB601BE0BB681B68FB6009E002
:1038D0007B689B6803F101027B689A60FB6803F1D7
:1038E0000103FB60FB681B78002BF1D17B681B6830
:1038F00003F101027B681A60BB6803F10403BB603B
:10390000BB681B68002BDFD17B689A687B681B68EB
:10391000B2FBF3F27B685A607B681B684FEA830353
:1039200003F10103184602F0B9FE03461A467B680C
:10393000DA603B683B617B68DB687B612DE03B695B
:103940001B68BB617B685B6803F10103184602F0EA
:10395000A5FE03461A467B691A607B691B68FB61FA
:103960000BE0BB691A78FB691A70FB6903F101036C
:10397000FB61BB6903F10103BB61BB691B78002BD1
:10398000EFD1FB694FF000021A703B6903F10403A9
:103990003B617B6903F104037B613B691B68002B7E
:1039A000CDD17B694FF000021A6007F12007BD46B8
:1039B00080BD00BF80B584B000AF78607B68DB68F5
:1039C000002B16D07B68DB68FB6008E0FB681B6897
:1039D000184602F05BFEFB6803F10403FB60FB6822
:1039E0001B68002BF2D17B68DB68184602F04EFEA4
:1039F00000E000BF07F11007BD4680BD90B587B05D
:103A000000AF044679607B68DB6807F10802104666
:103A10001946FFF73DFFA44607F108030FCB8CE8DA
:103A20000F00204607F11C07BD4690BD80B483B04F
:103A300000AF034679603A607A681A603A685A6063
:103A4000184607F10C07BD4680BC704790B587B09B
:103A500000AF044679601346FB704FF000033B61F2
:103A60002AE04FF000037B611DE007F108031846D0
:103A700039697A69FFF7DAFF786807F1080393E894
:103A8000060000F031F80346FA789A4207D123463F
:103A900007F1080292E8030083E803001EE07B6957
:103AA00003F101037B617B685A687B699A42DCD829
:103AB0003B6903F101033B617B681A683B699A42E9
:103AC000CFD87B681B6803F101027B685B6803F158
:103AD0000103204611461A46FFF7A8FF204607F1CA
:103AE0001C07BD4690BD00BF80B485B000AFF86034
:103AF00007F1040383E80600FB68DA687B684FEA95
:103B0000830313441A68BB6813441B78184607F1F3
:103B10001407BD4680BC704780B485B000AFF86024
:103B200007F1040080E80600FB70FB68DA687B6838
:103B30004FEA830313441A68BB681344FA781A7077
:103B400007F11407BD4680BC704700BF80B584B044
:103B500000AFF86007F1040383E80600F86807F196
:103B6000040393E80600FFF7BFFF0346312B14BFA1
:103B700000230123184607F11007BD4680BD00BF92
:103B800080B485B000AFF86007F1040383E8060055
:103B90007A68FB681B689A4207D2BA68FB685B6860
:103BA0009A4202D24FF0010301E04FF000031846A1
:103BB00007F11407BD4680BC704700BF80B483B0D6
:103BC00000AF3B4683E803007B687A6802FB03F2A0
:103BD0003B68396801FB03F31344184607F10C07EF
:103BE000BD4680BC704700BF80B485B000AF07F110
:103BF000080C8CE80300394681E80C00BA683B6881
:103C00009A4206D1FA687B689A4202D14FF00103CA
:103C100001E04FF00003184607F11407BD4680BCD1
:103C2000704700BF80B400AF03464FF000021A6037
:103C30004FF000025A601846BD4680BC704700BF76
:103C400080B400AF4FF0FF326FF00043A3F5801354
:103C500010461946BD4680BC704700BF80B483B093
:103C600000AF4FF000037B6015E07A6840F6B86360
:103C7000C2F200034FF0000143F822107A6840F6C8
:103C8000CC63C2F200034FF0000143F822107B68BE
:103C900003F101037B607B68042BE6D907F10C0775
:103CA000BD4680BC704700BF80B483B000AF786071
:103CB00039607A6840F6B863C2F20003396843F8A5
:103CC00022107A6840F6CC63C2F200034FF0010183
:103CD00043F8221007F10C07BD4680BC704700BFB7
:103CE00080B483B000AF78607A6840F6CC63C2F2EB
:103CF000000353F82230002B00D100BE7A6840F652
:103D0000B863C2F2000353F82230184607F10C07DB
:103D1000BD4680BC704700BF80B483B000AF03468F
:103D2000FB804EF20013CEF20003B7F906204FEAF3
:103D30005212F98801F01F014FF0010000FA01F161
:103D400043F8221007F10C07BD4680BC704700BF46
:103D500080B483B000AF0346FB804EF20013CEF276
:103D60000003B7F906204FEA5212F98801F01F014B
:103D70004FF0010000FA01F102F1200243F8221095
:103D800007F10C07BD4680BC704700BF80B487B008
:103D900000AF786039604FF00003FB604FF0000324
:103DA0003B6132E04FF00003FB757A683B691344D6
:103DB0001B78072B11D0072B02DC042B05D014E055
:103DC000342B06D0372B0CD00FE04FF00003FB75DF
:103DD0000BE04FF00103FB7507E04FF00203FB75AA
:103DE00003E04FF00303FB7500BFFA7D3B69C3F1AD
:103DF0000F034FEA430302FA03F3FA6842EA0303AC
:103E0000FB603B6903F101033B613A693B689A42FD
:103E1000C8D3FB68184607F11C07BD4680BC704735
:103E200080B485B000AF78607B68FB60FB684FF0C2
:103E300001021A6007F11407BD4680BC704700BF3D
:103E400080B485B000AF78607B68FB60FB684FF0A2
:103E500000021A6007F11407BD4680BC704700BF1E
:103E600080B582B000AF786039607B683A681A60CC
:103E70007B684FF000025A6040F6F060C2F200002A
:103E800040F20001C4F205014FF006024FF00103B9
:103E900000F046FF786800F005F807F10807BD4616
:103EA00080BD00BF80B582B000AF78607B684FF006
:103EB00000025A604FF01F00FFF72EFF41F2000092
:103EC000C4F20500FFF7ACFF07F10807BD4680BD4F
:103ED00080B582B000AF786041F20000C4F2050006
:103EE000FFF7AEFF4FF01F00FFF732FF7B684FF088
:103EF00000025A6007F10807BD4680BD80B582B058
:103F000000AF786040F6E060C2F200004FF01001B0
:103F1000FFF73CFF02467B685A6040F6F060C2F251
:103F2000000040F6E061C2F200014FF0100201F023
:103F30009DF807F10807BD4680BD00BF80B483B07F
:103F400000AF78600B46FB707B685968FB7840F2E5
:103F5000A842C2F200024FEAC30313445B6801EABD
:103F60000303184607F10C07BD4680BC704700BF2D
:103F700080B483B000AF78607B685B6803F0007347
:103F8000002B02D04FF003031CE07B685B6803F05A
:103F90008073002B02D04FF0040313E07B685B6852
:103FA00003F08063002B02D04FF002030AE07B682D
:103FB0005B6803F00063002B02D04FF0010301E0C7
:103FC0004FF00003184607F10C07BD4680BC704750
:103FD00080B483B000AF78604FF0FF33184607F12C
:103FE0000C07BD4680BC704780B483B000AF7860DA
:103FF000FEE700BF80B483B000AF786039603B68F3
:104000004FF400525A604FF00003184607F10C07B6
:10401000BD4680BC704700BF80B400AF4FF00103C5
:104020001846BD4680BC704780B483B000AF78604E
:104030004FF00103184607F10C07BD4680BC7047DE
:1040400080B582B000AF7860396001F0A7FF034609
:104050004FF016021A604FF0FF33184607F10807B9
:10406000BD4680BD80B485B000AFF860B9607A60AD
:104070004FF00003184607F11407BD4680BC704797
:1040800080B485B000AFF860B9607A604FF000038B
:10409000184607F11407BD4680BC704780B485B050
:1040A00000AFF860B9607A603B604FF000031846DB
:1040B00007F11407BD4680BC704700BF80B584B0CF
:1040C00000AF786040F64C23C2F200031B68002B5F
:1040D00008D140F64C23C2F2000340F66872C2F2E7
:1040E00000021A6040F64C23C2F200031B68BB605A
:1040F000EFF30883FB6040F64C23C2F200031A681A
:104100007B681A44FB689A420FD94FF000004FF0C9
:10411000010149F6DC12C0F200024FF01903FFF76B
:10412000BDFF4FF00100FFF75FFF40F64C23C2F2E6
:1041300000031A687B681A4440F64C23C2F200035D
:104140001A60BB68184607F11007BD4680BD00BF66
:1041500080B483B000AF0346FB804EF20013CEF272
:104160000003B7F906204FEA5212F98801F01F0147
:104170004FF0010000FA01F143F8221007F10C079B
:10418000BD4680BC704700BF80B483B000AF03461B
:10419000FB804EF20013CEF20003B7F906204FEA7F
:1041A0005212F98801F01F014FF0010000FA01F1ED
:1041B00002F1600243F8221007F10C07BD4680BCF3
:1041C000704700BF80B588B000AFF860B960134693
:1041D000FB714FF00103FB824FF00003BB61FA68F3
:1041E00040F63C73C2F200039A4207D0FA6840F6E8
:1041F0001473C2F200039A4200D000BEBB68002BC9
:1042000000D100BE01F0B6F8FA6840F63C73C2F285
:1042100000039A422ED1FB684FF080421A60FB687F
:104220004FF084425A60FB684FF00A021A8140F254
:104230003053C2F200031B68BB6142F20003CEF2AE
:10424000040342F20002CEF20402126B42F080023A
:104250001A634FF00A00FFF797FF42F20003CEF215
:10426000040342F20002CEF20402126B22F080023A
:104270001A6331E0FA6840F20003C4F201031360EC
:10428000FA6840F20003C4F220235360FB684FF049
:104290000B021A8140F23453C2F200031B68BB6167
:1042A00042F20003CEF2040342F20002CEF2040214
:1042B000126B42F480721A634FF00B00FFF764FF39
:1042C00042F20003CEF2040342F20002CEF20402F4
:1042D000126B22F480721A63FB681B684FF00002B5
:1042E0001A71BB68002B21D0BA69BB68B2FBF3F32B
:1042F000FB61FB6903F00803002B06D0FB694FEA62
:10430000131303F10103FB6103E0FB694FEA13138D
:10431000FB61FA694FF6FF739A4200D900BEFA6951
:104320004FF6FF739A4201D8FB69FB82FB685B681A
:104330004FF00102C3F89C21FB681B68FA8A4FEA20
:10434000122292B2D2B21A71FB681B68FA8AD2B2F8
:104350001A70FB685B684FF00002C3F89C21FB6891
:104360001B68FA791A73FB681B684FF00E021A7209
:10437000FB685B684FF00002C3F81022FB684FF047
:1043800000021A61FB684FF00002DA60FB684FF030
:1043900000025A61FB684FF00002DA61FA6844F2E9
:1043A0002173C0F200031362FB684FF000029A61B0
:1043B000FB684FF000025A62FB684FF000029A72ED
:1043C00007F12007BD4680BD80B489B000AFF8601A
:1043D000B9607A604FF000033B61FA6840F63C73C5
:1043E000C2F200039A4207D0FA6840F61473C2F290
:1043F00000039A4200D000BEBB68002B00D100BE73
:104400007B68002B00D100BEFA6840F63C73C2F214
:1044100000039A4206D0FA6840F61473C2F2000311
:104420009A423DD1BB68002B3AD07B68002B37D035
:10443000FB681B681B7DFB76FB689A7AFB7E42EA71
:104440000303DAB2FB689A72FB7E03F02003002BB1
:1044500023D04FF01003FB617B680F2B01D87B68E2
:10446000FB614FF000037B610EE0FB681B68B968DD
:104470003A690A4412781A703B6903F101033B61FF
:104480007B6903F101037B617A69FB699A42ECD392
:104490007A687B69C3EB02037B607B68002BC7D122
:1044A00007F12407BD4680BC704700BF80B487B0C9
:1044B00000AFF860B9607A604FF000033B614FF0E5
:1044C0000003FB75FA6840F63C73C2F200039A429F
:1044D00007D0FA6840F61473C2F200039A4200D083
:1044E00000BEBB68002B00D100BE7B68002B00D152
:1044F00000BEFA6840F63C73C2F200039A4206D04E
:10450000FA6840F61473C2F200039A4234D1BB68D1
:10451000002B31D07B68002B2ED0FB681B681B7DE5
:10452000FB75FB689A7AFB7D42EA0303DAB2FB680B
:104530009A7217E0BA683B691344FA6812681278F5
:10454000D2B21A703B6903F101033B61FB681B683F
:104550001B7DFB75FB689A7AFB7D42EA0303DAB2A6
:10456000FB689A72FB7D03F00103DBB2002B03D0E2
:104570003A697B689A42DDD33B69184607F11C070C
:10458000BD4680BC704700BF80B582B000AF786088
:104590000B46FB707A6840F63C73C2F200039A4205
:1045A00007D07A6840F61473C2F200039A4200D032
:1045B00000BE7A6840F63C73C2F200039A4206D00D
:1045C0007A6840F61473C2F200039A4216D17B68EF
:1045D0001B891BB21846FFF7D7FD7B681B687A68FA
:1045E00012681279D1B2FA7841EA0202D2B21A7193
:1045F0007B681B891BB21846FFF7AAFD07F1080765
:10460000BD4680BD80B584B000AF78607A6840F662
:104610003C73C2F200039A4207D07A6840F61473E2
:10462000C2F200039A4200D000BE7A6840F63C73A2
:10463000C2F200039A4206D07A6840F61473C2F2BE
:1046400000039A4267D17B681B681B7ADBB203F0D8
:104650000F03FB73FB7B0C2B54D801A252F823F001
:104660009546000005470000B146000005470000E0
:10467000CD46000005470000E94600000547000060
:1046800005470000054700000547000005470000FA
:10469000CD4600007B685B6A002B00D100BE7B68C2
:1046A0005B6A002B30D07B685B6A7868984732E0A1
:1046B0007B681B6A002B00D100BE7B681B6A002B45
:1046C00024D07B681B6A7868984724E07B68DB69A4
:1046D000002B00D100BE7B68DB69002B18D07B6803
:1046E000DB697868984716E07B689B69002B00D1EE
:1046F00000BE7B689B69002B0CD07B689B69786847
:10470000984708E000BE06E000BF04E000BF02E0FA
:1047100000BF00E000BF07F11007BD4680BD00BF2D
:1047200080B487B000AF78607A6840F63C73C2F21C
:1047300000039A4207D07A6840F61473C2F200036D
:104740009A4200D000BE7B68DB68002B00D100BE1F
:104750007B681B69002B00D100BE7A6840F63C7371
:10476000C2F200039A4206D07A6840F61473C2F28D
:1047700000039A4252D17B68DB68002B4ED07B68E5
:104780001B69002B4AD07B681B681B7DFB727B6812
:104790009A7AFB7A42EA0303DAB27B689A72FB7A6E
:1047A00003F02003002B29D04FF010033B617B68FE
:1047B0001A697B685B69C3EB02037B617B690F2B22
:1047C00001D87B693B614FF00003FB6012E07B681E
:1047D0001B687A68D1687A6852690A4412781A703C
:1047E0007B685B6903F101027B685A61FB6803F136
:1047F0000103FB60FA683B699A42E8D37B685A6917
:104800007B681B699A4209D17B684FF000021A61EC
:104810007B685B684FF00002C3F8842007F11C0737
:10482000BD4680BC704700BF80B584B000AFF86063
:10483000B9601346FB71FA6840F63C73C2F200039C
:104840009A4207D0FA6840F61473C2F200039A4203
:1048500000D000BEBB68002B00D100BEFB79C02B8E
:1048600000D900BEFA6840F63C73C2F200039A42D7
:1048700006D0FA6840F61473C2F200039A4223D1BC
:10488000BB68002B20D0FB79C02B1DD8FB68BA6811
:10489000DA61FB681A68FB7903F0C00343F00A038E
:1048A000DBB21372FB681B891BB21846FFF76CFC66
:1048B000FB685B684FF00102C3F88020FB681B892E
:1048C0001BB21846FFF744FC07F11007BD4680BD38
:1048D000684620F007018D4689B500AF40F63C7070
:1048E000C2F20000FFF78EFE4FF00A00FFF74CFC0B
:1048F000BD46BDE889408546704700BF684620F048
:1049000007018D4689B500AF40F61470C2F2000071
:10491000FFF778FE4FF00B00FFF736FCBD46BDE811
:1049200089408546704700BF80B590B000AFF86001
:10493000B960FA807B71FB68002B23D149F6F8132C
:10494000C0F2000307F1140C9E46BEE80F00ACE86D
:104950000F00BEE80F00ACE80F009EE80300CCF8A3
:1049600000000CF1040CACF800100CF1020C4FEA42
:1049700011438CF8003007F1140318464FF0300152
:1049800000F014FE7B79072B23D949F6F813C0F207
:10499000000307F1140C9E46BEE80F00ACE80F00C0
:1049A000BEE80F00ACE80F009EE80300CCF8000062
:1049B0000CF1040CACF800100CF1020C4FEA11439E
:1049C0008CF8003007F1140318464FF0310100F065
:1049D000EDFDFA8841F6FF739A4223D949F6F813A0
:1049E000C0F2000307F1140C9E46BEE80F00ACE8CD
:1049F0000F00BEE80F00ACE80F009EE80300CCF803
:104A000000000CF1040CACF800100CF1020C4FEAA1
:104A100011438CF8003007F1140318464FF03201AF
:104A200000F0C4FDFB68002B00F0C7807B79072BEA
:104A300000F2C380FA8841F6FF739A4200F2BD800B
:104A4000BB6803F10802FB8803F0FF031046194618
:104A500000F0F0FDBB6803F10C027979FB8803F4E8
:104A60007F434FEA631341EA03031046194600F0FF
:104A7000E1FDFB68BA681A60FB681B6803F1080374
:104A8000184600F0D9FD0346FB87FB681B6803F15D
:104A90000C03184600F0D0FD034687F83C3097F829
:104AA0003C3023F0070387F83D3097F83D304FEA5C
:104AB00043139AB2FB8F42EA0303FB8797F83C301B
:104AC00003F0070387F83C30FA8FFB889A4223D023
:104AD00049F6F813C0F2000307F1140C9E46BEE835
:104AE0000F00ACE80F00BEE80F00ACE80F009EE836
:104AF0000300CCF800000CF1040CACF800100CF131
:104B0000020C4FEA11438CF8003007F114031846E9
:104B10004FF0540100F04AFD97F83C207B799A420F
:104B200023D049F6F813C0F2000307F1140C9E4697
:104B3000BEE80F00ACE80F00BEE80F00ACE80F00C5
:104B40009EE80300CCF800000CF1040CACF8001057
:104B50000CF1020C4FEA11438CF8003007F11403FA
:104B600018464FF0550100F021FDFB681B6803F16A
:104B70001003184600F060FD034603F0020387F8B7
:104B80003B3012E0FB681B6803F10403184600F099
:104B900053FDFB681B6803F11003184600F04CFD41
:104BA000034603F0020387F83B3097F83B30002BB5
:104BB000E8D1FB684FF000021A7107F14007BD46CB
:104BC00080BD00BF80B590B000AFF860B9607A607A
:104BD000FB68002B23D149F6F813C0F2000307F15C
:104BE000100C9E46BEE80F00ACE80F00BEE80F00B8
:104BF000ACE80F009EE80300CCF800000CF1040CB8
:104C0000ACF800100CF1020C4FEA11438CF80030A4
:104C100007F1100318464FF07C0100F0C7FCBB6899
:104C2000002B23D149F6F813C0F2000307F1100C52
:104C30009E46BEE80F00ACE80F00BEE80F00ACE8EF
:104C40000F009EE80300CCF800000CF1040CACF857
:104C500000100CF1020C4FEA11438CF8003007F100
:104C6000100318464FF07D0100F0A0FC7B68002B7C
:104C700023D149F6F813C0F2000307F1100C9E4649
:104C8000BEE80F00ACE80F00BEE80F00ACE80F0074
:104C90009EE80300CCF800000CF1040CACF8001006
:104CA0000CF1020C4FEA11438CF8003007F11003AD
:104CB00018464FF07E0100F079FCFB68002B2BD0EA
:104CC000BB68002B28D07B68002B25D04FF0000359
:104CD000BB631DE0FB681B6803F11003184600F07E
:104CE000ABFC034603F0010387F83F3097F83F30F1
:104CF000002BEFD0FB681A68B968BB6B0B441B78BC
:104D00001046194600F096FCBB6B03F10103BB6330
:104D1000BA6B7B689A42DDD307F14007BD4680BD80
:104D200080B58EB000AFF860B960FA807B71BB6867
:104D3000002B19D149F62023C0F2000307F1100C13
:104D40009E46BEE80F00ACE80F00BEE80F00ACE8DE
:104D50000F00DEF80030ACF8003007F11003184601
:104D60004FF0630100F022FCFB68002B19D149F6DB
:104D70002023C0F2000307F1100C9E46BEE80F008E
:104D8000ACE80F00BEE80F00ACE80F00DEF8003022
:104D9000ACF8003007F1100318464FF0640100F042
:104DA00005FCBB68002B00F05C81FB68002B00F069
:104DB0005881BB6803F1040318464FF0000100F06E
:104DC00039FCBB6803F10C0318464FF007014FF0A4
:104DD00080024FF0010300F031FCBB6803F10C03CB
:104DE00018464FF007014FF0800200F035FC0346F3
:104DF00087F8343097F83430012B19D049F6202346
:104E0000C0F2000307F1100C9E46BEE80F00ACE8AC
:104E10000F00BEE80F00ACE80F00DEF80030ACF881
:104E2000003007F1100318464FF06F0100F0BEFB91
:104E3000FB884FEA13239BB287F83730BB6803F136
:104E4000040297F837301046194600F0F3FBFB8850
:104E5000DBB2B868194600F0EDFBBB6803F1040350
:104E6000184600F0E9FB034687F83430B86800F0D4
:104E7000E3FB034687F8353097F834304FEA0322D6
:104E800097F8353042EA0302FB889A4219D049F676
:104E90002023C0F2000307F1100C9E46BEE80F006D
:104EA000ACE80F00BEE80F00ACE80F00DEF8003001
:104EB000ACF8003007F1100318464FF0790100F00C
:104EC00075FBBB6803F10C0318464FF007014FF068
:104ED00080024FF0000300F0B1FBBB6803F10C034C
:104EE00018464FF007014FF0800200F0B5FB034673
:104EF00087F8343097F83430002B19D049F6202346
:104F0000C0F2000307F1100C9E46BEE80F00ACE8AB
:104F10000F00BEE80F00ACE80F00DEF80030ACF880
:104F2000003007F1100318464FF07F0100F03EFB00
:104F3000BB6803F10C027B791046194600F07AFB3E
:104F4000BB6803F10C03184600F076FB034687F8B4
:104F5000343097F834207B799A4219D049F62023CF
:104F6000C0F2000307F1100C9E46BEE80F00ACE84B
:104F70000F00BEE80F00ACE80F00DEF80030ACF820
:104F8000003007F1100318464FF0850100F00EFBCA
:104F90004FF00F0387F83630BB6803F1080297F82B
:104FA00036301046194600F045FBBB6803F110038C
:104FB00018464FF004014FF010024FF0000300F0CC
:104FC0003DFBBB6803F1100318464FF004014FF09E
:104FD000100200F041FB034687F8343097F8343074
:104FE000002B19D049F62023C0F2000307F1100C62
:104FF0009E46BEE80F00ACE80F00BEE80F00ACE82C
:105000000F00DEF80030ACF8003007F1100318464E
:105010004FF0910100F0CAFAFB68BA681A60FB68A9
:105020004FF000029A60FB684FF00002DA60FB6804
:105030004FF000021A61FA6845F2CD13C0F2000386
:10504000D361FB684FF000029A61FB684FF00002E9
:105050005A61FB684FF000021A62FB684FF00002D1
:105060001A7107F13807BD4680BD00BF90B58FB0FB
:1050700000AFF860B9607A604FF000037B63FB68B3
:10508000002B19D149F62023C0F2000307F1100CC0
:105090009E46BEE80F00ACE80F00BEE80F00ACE88B
:1050A0000F00DEF80030ACF8003007F110031846AE
:1050B00040F2631100F07AFABB68002B19D149F66F
:1050C0002023C0F2000307F1100C9E46BEE80F003B
:1050D000ACE80F00BEE80F00ACE80F00DEF80030CF
:1050E000ACF8003007F1100318464FF4B27100F02D
:1050F0005DFA7B68002B19D149F62023C0F200032A
:1051000007F1100C9E46BEE80F00ACE80F00BEE8A9
:105110000F00ACE80F00DEF80030ACF8003007F10B
:105120001003184640F2651100F040FAFB68002BAE
:1051300046D0BB68002B43D07B68002B40D0FB6877
:105140001B6803F11403184600F076FA034687F84B
:105150003330FB681A7997F8333042EA0303DAB246
:10516000FB681A7121E0BA687B6B02EB0304FB68F1
:105170001B68184600F060FA034623707B6B03F14E
:1051800001037B63FB681B6803F11403184600F0FE
:1051900053FA034687F83330FB681A7997F83330AF
:1051A00042EA0303DAB2FB681A7197F8333003F06E
:1051B0000103DBB2002B03D07A6B7B689A42D2D317
:1051C0007B6B184607F13C07BD4690BD80B58EB09D
:1051D00000AF78607B68002B19D149F62023C0F21C
:1051E000000307F1080C9E46BEE80F00ACE80F0074
:1051F000BEE80F00ACE80F00DEF80030ACF800307D
:1052000007F10803184640F24B2100F0CFF97B6804
:10521000002B00F0A4807B689B68002B19D149F615
:105220002023C0F2000307F1080C9E46BEE80F00E1
:10523000ACE80F00BEE80F00ACE80F00DEF800306D
:10524000ACF8003007F10803184640F24F2100F097
:10525000ADF97B68DB68002B19D149F62023C0F239
:10526000000307F1080C9E46BEE80F00ACE80F00F3
:10527000BEE80F00ACE80F00DEF80030ACF80030FC
:1052800007F1080318464FF4147100F08FF97B689A
:105290009B68002B63D07B68DB68002B5FD07B684A
:1052A0001B6803F11403184600F0C6F9034687F89B
:1052B0002B307B681A7997F82B3042EA0303DAB275
:1052C0007B681A7197F82B3003F02003002B2FD046
:1052D0004FF00003FB624FF010033B637B68DA681A
:1052E0007B681B69C3EB02037B637B6B0F2B01D8CD
:1052F0007B6B3B634FF00003FB6215E07B681A6831
:105300007B6899687B681B690B441B7810461946BB
:1053100000F090F97B681B6903F101027B681A6158
:10532000FB6A03F10103FB62FA6A3B6B9A42E5D325
:105330007B681A697B68DB689A4210D17B684FF002
:105340000002DA607B681B6803F1040318464FF023
:1053500001014FF002024FF0000300F06FF907F176
:105360003807BD4680BD00BF80B400AFBD4680BCDD
:10537000704700BF80B58AB000AF49F64423C0F241
:105380000003BC460FCB8CE80F0042F20003CEF2C4
:1053900004039B6C4FEA930303F003034FEA830378
:1053A00007F12802134453F8283C3B6142F2000302
:1053B000CEF204039B6C4FEA131303F003034FEA8E
:1053C000830307F12802134453F8283C7B6142F21F
:1053D0000003CEF204039B6C4FEA931303F0030324
:1053E0004FEA830307F12802134453F8283CBB61BA
:1053F00042F20003CEF20403DB6C4FEA132303F006
:105400001F033B6242F20003CEF20403DB6C4FEA5F
:10541000533303F001037B623B6A03F10103FB6139
:105420007B6A002B03D0FB694FEA4303FB6100F06A
:1054300049F8024640F22C53C2F200031A6040F2CF
:105440002C53C2F200031A683B69B2FBF3F240F23C
:105450003053C2F200031A6040F22C53C2F2000330
:105460001A687B69B2FBF3F240F23453C2F20003D4
:105470001A6040F22C53C2F200031A68BB69B2FBF7
:10548000F3F240F23853C2F200031A6040F22C5398
:10549000C2F200031A68FB69B2FBF3F240F23C531C
:1054A000C2F200031A6040F22C53C2F200031A68E1
:1054B00040F22853C2F200031A6007F12807BD46E4
:1054C00080BD00BF80B48BB000AF4FF000037B60A5
:1054D00040F61C03C6F20803BB6040F23023C6F25C
:1054E0000803FB60FB681B6823F070433B613A696B
:1054F00041F2CF13C0F2A1539A4208D14EF62C7359
:10550000C6F201037B617B691B687B603DE0BB6881
:105510001A6844F24133C4F654439A4235D140F6F6
:105520004003C6F20803BB61BB691B68FB61FB69F2
:1055300023F07F43FB61FA6940F20033C0F20103BC
:105540009A4222D9FA694FF6FF73C0F201039A42D8
:1055500008D841F22C63C6F208033B623B6A1B6821
:105560007B6012E0FA694FF6FF73C0F202039A42C1
:1055700008D841F6AC63C6F208037B627B6A1B68FD
:105580007B6002E04FF000037B607B68002B05D15D
:1055900000BE47F64003C0F27D137B607B6818466F
:1055A00007F12C07BD4680BC704700BF80B487B0B0
:1055B00000AF786039607B687B613B683B617B69E9
:1055C0001B78DBB2FB733B69BB60BB6803F1010373
:1055D000BB60F0E701607047006870470EB503FAE2
:1055E00001F303EA020301686FEA020201EA020121
:1055F00041EA030101600EBD006800EA020020FAE2
:1056000001F0704701807047008870470EB503FABB
:1056100001F303EA020301886FEA020201EA0201D0
:1056200041EA030101800EBD008800EA020020FA71
:1056300001F0704701707047007870470EB503FAAB
:1056400001F303EA020301786FEA020201EA0201B0
:1056500041EA030101700EBD007800EA020020FA61
:1056600001F0704781F0004102E000BF83F0004389
:1056700030B54FEA41044FEA430594EA050F08BFED
:1056800090EA020F1FBF54EA000C55EA020C7FEAB1
:10569000645C7FEA655C00F0E2804FEA5454D4EB2E
:1056A0005555B8BF6D420CDD2C4480EA020281EAF8
:1056B000030382EA000083EA010180EA020281EA30
:1056C0000303362D88BF30BD11F0004F4FEA013182
:1056D0004FF4801C4CEA113102D0404261EB410191
:1056E00013F0004F4FEA03334CEA133302D0524217
:1056F00063EB430394EA050F00F0A780A4F10104D3
:10570000D5F1200E0DDB02FA0EFC22FA05F280180C
:1057100041F1000103FA0EF2801843FA05F35941F2
:105720000EE0A5F120050EF1200E012A03FA0EFC71
:1057300028BF4CF0020C43FA05F3C01851EBE3719B
:1057400001F0004507D54FF0000EDCF1000C7EEBB8
:1057500000006EEB0101B1F5801F1BD3B1F5001FF6
:105760000CD349085FEA30004FEA3C0C04F1010415
:105770004FEA445212F5800F80F09A80BCF1004F3E
:1057800008BF5FEA500C50F1000041EB045141EAC0
:10579000050130BD5FEA4C0C404141EB010111F4C1
:1057A000801FA4F10104E9D191F0000F04BF01466C
:1057B0000020B1FA81F308BF2033A3F10B03B3F14A
:1057C00020020CDA0C3208DD02F1140CC2F10C02DA
:1057D00001FA0CF021FA02F10CE002F11402D8BF38
:1057E000C2F1200C01FA02F120FA0CFCDCBF41EA04
:1057F0000C019040E41AA2BF01EB0451294330BDD3
:105800006FEA04041F3C1CDA0C340EDC04F11404AF
:10581000C4F1200220FA04F001FA02F340EA030086
:1058200021FA04F345EA030130BDC4F10C04C4F1CC
:10583000200220FA02F001FA04F340EA03002946AC
:1058400030BD21FA04F0294630BD94F0000F83F4F6
:10585000801306BF81F480110134013D4EE77FEAD9
:10586000645C18BF7FEA655C29D094EA050F08BF25
:1058700090EA020F05D054EA000C04BF1946104606
:1058800030BD91EA030F1EBF0021002030BD5FEA4A
:10589000545C05D14000494128BF41F0004130BD72
:1058A00014F580043CBF01F5801130BD01F00045C6
:1058B00045F0FE4141F470014FF0000030BD7FEA39
:1058C000645C1ABF194610467FEA655C1CBF0B4634
:1058D000024650EA013406BF52EA033591EA030F4B
:1058E00041F4002130BD00BF90F0000F04BF002143
:1058F000704730B54FF4806404F132044FF0000576
:105900004FF0000150E700BF90F0000F04BF0021EE
:10591000704730B54FF4806404F1320410F0004554
:1059200048BF40424FF000013EE700BF42004FEA4F
:10593000E2014FEA31014FEA02701FBF12F07F43CC
:1059400093F07F4F81F06051704792F0000F14BFC9
:1059500093F07F4F704730B54FF4607401F000450D
:1059600021F0004120E700BF50EA010208BF704764
:1059700030B54FF000050AE050EA010208BF704759
:1059800030B511F0004502D5404261EB41014FF4C2
:10599000806404F132045FEA915C3FF4DCAE4FF0C6
:1059A00003025FEADC0C18BF03325FEADC0C18BFAD
:1059B000033202EBDC02C2F1200300FA03FC20FAFE
:1059C00002F001FA03FE40EA0E0021FA02F114444B
:1059D000C1E600BF70B54FF0FF0C4CF4E06C1CEA60
:1059E00011541DBF1CEA135594EA0C0F95EA0C0FD5
:1059F00000F0DEF82C4481EA030621EA4C5123EA48
:105A00004C5350EA013518BF52EA033541F4801176
:105A100043F4801338D0A0FB02CE4FF00005E1FB29
:105A200002E506F00042E0FB03E54FF00006E1FB73
:105A300003569CF0000F18BF4EF0010EA4F1FF04B6
:105A4000B6F5007F64F5407404D25FEA4E0E6D41F6
:105A500046EB060642EAC62141EA55514FEAC52007
:105A600040EA5E504FEACE2EB4F1FD0C88BFBCF583
:105A7000E06F1ED8BEF1004F08BF5FEA500E50F134
:105A8000000041EB045170BD06F0004646EA0101FA
:105A900040EA020081EA0301B4EB5C04C2BFD4EB2C
:105AA0000C0541EA045170BD41F480114FF0000E25
:105AB000013C00F3AB8014F1360FDEBF002001F093
:105AC000004170BDC4F10004203C35DA0C341BDC0D
:105AD00004F11404C4F1200500FA05F320FA04F0DF
